{
  "_format": "hh-sol-artifact-1",
  "contractName": "PaymentContractV7",
  "sourceName": "contracts/PaymentContractV7.sol",
  "abi": [
    {
      "inputs": [
        {
          "internalType": "address",
          "name": "_usdtAddress",
          "type": "address"
        },
        {
          "internalType": "address",
          "name": "_projectWallet",
          "type": "address"
        }
      ],
      "stateMutability": "nonpayable",
      "type": "constructor"
    },
    {
      "inputs": [
        {
          "internalType": "address",
          "name": "owner",
          "type": "address"
        }
      ],
      "name": "OwnableInvalidOwner",
      "type": "error"
    },
    {
      "inputs": [
        {
          "internalType": "address",
          "name": "account",
          "type": "address"
        }
      ],
      "name": "OwnableUnauthorizedAccount",
      "type": "error"
    },
    {
      "anonymous": false,
      "inputs": [
        {
          "indexed": true,
          "internalType": "address",
          "name": "previousOwner",
          "type": "address"
        },
        {
          "indexed": true,
          "internalType": "address",
          "name": "newOwner",
          "type": "address"
        }
      ],
      "name": "OwnershipTransferred",
      "type": "event"
    },
    {
      "inputs": [],
      "name": "USDT",
      "outputs": [
        {
          "internalType": "contract IERC20",
          "name": "",
          "type": "address"
        }
      ],
      "stateMutability": "view",
      "type": "function"
    },
    {
      "inputs": [
        {
          "internalType": "uint256",
          "name": "",
          "type": "uint256"
        }
      ],
      "name": "amountPerLevel",
      "outputs": [
        {
          "internalType": "uint256",
          "name": "",
          "type": "uint256"
        }
      ],
      "stateMutability": "view",
      "type": "function"
    },
    {
      "inputs": [],
      "name": "claimEarnings",
      "outputs": [],
      "stateMutability": "nonpayable",
      "type": "function"
    },
    {
      "inputs": [
        {
          "internalType": "address",
          "name": "user",
          "type": "address"
        },
        {
          "internalType": "uint256",
          "name": "poolId",
          "type": "uint256"
        }
      ],
      "name": "distributeExceedingPayment",
      "outputs": [],
      "stateMutability": "nonpayable",
      "type": "function"
    },
    {
      "inputs": [
        {
          "internalType": "uint256",
          "name": "poolPrice",
          "type": "uint256"
        }
      ],
      "name": "distributeProjectFee",
      "outputs": [],
      "stateMutability": "nonpayable",
      "type": "function"
    },
    {
      "inputs": [
        {
          "internalType": "address[]",
          "name": "referrers",
          "type": "address[]"
        },
        {
          "internalType": "uint256",
          "name": "poolPrice",
          "type": "uint256"
        }
      ],
      "name": "distributeReferralPayments",
      "outputs": [],
      "stateMutability": "nonpayable",
      "type": "function"
    },
    {
      "inputs": [
        {
          "internalType": "uint256",
          "name": "",
          "type": "uint256"
        }
      ],
      "name": "extraPerPool",
      "outputs": [
        {
          "internalType": "uint256",
          "name": "",
          "type": "uint256"
        }
      ],
      "stateMutability": "view",
      "type": "function"
    },
    {
      "inputs": [],
      "name": "multiPoolAddress",
      "outputs": [
        {
          "internalType": "address",
          "name": "",
          "type": "address"
        }
      ],
      "stateMutability": "view",
      "type": "function"
    },
    {
      "inputs": [],
      "name": "owner",
      "outputs": [
        {
          "internalType": "address",
          "name": "",
          "type": "address"
        }
      ],
      "stateMutability": "view",
      "type": "function"
    },
    {
      "inputs": [],
      "name": "projectFeePercentage",
      "outputs": [
        {
          "internalType": "uint256",
          "name": "",
          "type": "uint256"
        }
      ],
      "stateMutability": "view",
      "type": "function"
    },
    {
      "inputs": [],
      "name": "projectWallet",
      "outputs": [
        {
          "internalType": "address",
          "name": "",
          "type": "address"
        }
      ],
      "stateMutability": "view",
      "type": "function"
    },
    {
      "inputs": [],
      "name": "renounceOwnership",
      "outputs": [],
      "stateMutability": "nonpayable",
      "type": "function"
    },
    {
      "inputs": [
        {
          "internalType": "address",
          "name": "_multiPoolAddress",
          "type": "address"
        }
      ],
      "name": "setMultiPoolAddress",
      "outputs": [],
      "stateMutability": "nonpayable",
      "type": "function"
    },
    {
      "inputs": [],
      "name": "totalDistributed",
      "outputs": [
        {
          "internalType": "uint256",
          "name": "",
          "type": "uint256"
        }
      ],
      "stateMutability": "view",
      "type": "function"
    },
    {
      "inputs": [
        {
          "internalType": "address",
          "name": "newOwner",
          "type": "address"
        }
      ],
      "name": "transferOwnership",
      "outputs": [],
      "stateMutability": "nonpayable",
      "type": "function"
    },
    {
      "inputs": [
        {
          "internalType": "address",
          "name": "",
          "type": "address"
        }
      ],
      "name": "userBalances",
      "outputs": [
        {
          "internalType": "uint256",
          "name": "",
          "type": "uint256"
        }
      ],
      "stateMutability": "view",
      "type": "function"
    }
  ],
  "bytecode": "0x6080604052600a6007553480156200001657600080fd5b50604051620017513803806200175183398181016040528101906200003c9190620003fa565b33600073ffffffffffffffffffffffffffffffffffffffff168173ffffffffffffffffffffffffffffffffffffffff1603620000b25760006040517f1e4fbdf7000000000000000000000000000000000000000000000000000000008152600401620000a9919062000452565b60405180910390fd5b620000c381620002cc60201b60201c565b5081600160006101000a81548173ffffffffffffffffffffffffffffffffffffffff021916908373ffffffffffffffffffffffffffffffffffffffff16021790555080600260006101000a81548173ffffffffffffffffffffffffffffffffffffffff021916908373ffffffffffffffffffffffffffffffffffffffff160217905550600a6005600080815260200190815260200160002081905550600360056000600181526020019081526020016000208190555060026005600060028152602001908152602001600020819055506001600560006003815260200190815260200160002081905550600160056000600481526020019081526020016000208190555060016005600060058152602001908152602001600020819055506002600560006006815260200190815260200160002081905550624c4b40600660006001815260200190815260200160002081905550629896806006600060028152602001908152602001600020819055506307270e00600660006003815260200190815260200160002081905550630db58580600660006004815260200190815260200160002081905550631443fd006006600060058152602001908152602001600020819055506302faf080600660006006815260200190815260200160002081905550635f5e100060066000600781526020019081526020016000208190555050506200046f565b60008060009054906101000a900473ffffffffffffffffffffffffffffffffffffffff169050816000806101000a81548173ffffffffffffffffffffffffffffffffffffffff021916908373ffffffffffffffffffffffffffffffffffffffff1602179055508173ffffffffffffffffffffffffffffffffffffffff168173ffffffffffffffffffffffffffffffffffffffff167f8be0079c531659141344cd1fd0a4f28419497f9722a3daafe3b4186f6b6457e060405160405180910390a35050565b600080fd5b600073ffffffffffffffffffffffffffffffffffffffff82169050919050565b6000620003c28262000395565b9050919050565b620003d481620003b5565b8114620003e057600080fd5b50565b600081519050620003f481620003c9565b92915050565b6000806040838503121562000414576200041362000390565b5b60006200042485828601620003e3565b92505060206200043785828601620003e3565b9150509250929050565b6200044c81620003b5565b82525050565b600060208201905062000469600083018462000441565b92915050565b6112d2806200047f6000396000f3fe608060405234801561001057600080fd5b50600436106101005760003560e01c8063bcc0350311610097578063d9ceab1311610066578063d9ceab1314610289578063efca2eed14610293578063f2fde38b146102b1578063f43de387146102cd57610100565b8063bcc0350314610213578063beb08ab91461022f578063c54e44eb1461024d578063cbf4b23b1461026b57610100565b80638da5cb5b116100d35780638da5cb5b146101795780639be61fab14610197578063a263cc97146101b3578063b7aa67a8146101e357610100565b80630adefe811461010557806326224c64146101215780634b03b78914610151578063715018a61461016f575b600080fd5b61011f600480360381019061011a9190610c32565b6102e9565b005b61013b60048036038101906101369190610c32565b610335565b6040516101489190610c78565b60405180910390f35b61015961034d565b6040516101669190610ca2565b60405180910390f35b610177610373565b005b610181610387565b60405161018e9190610ca2565b60405180910390f35b6101b160048036038101906101ac9190610ce9565b6103b0565b005b6101cd60048036038101906101c89190610ce9565b6104da565b6040516101da9190610c78565b60405180910390f35b6101fd60048036038101906101f89190610ce9565b6104f2565b60405161020a9190610c78565b60405180910390f35b61022d60048036038101906102289190610e6f565b61050a565b005b6102376106e4565b6040516102449190610ca2565b60405180910390f35b61025561070a565b6040516102629190610f2a565b60405180910390f35b610273610730565b6040516102809190610c78565b60405180910390f35b610291610736565b005b61029b6108e4565b6040516102a89190610c78565b60405180910390f35b6102cb60048036038101906102c69190610c32565b6108ea565b005b6102e760048036038101906102e29190610f45565b610970565b005b6102f1610a6d565b80600360006101000a81548173ffffffffffffffffffffffffffffffffffffffff021916908373ffffffffffffffffffffffffffffffffffffffff16021790555050565b60046020528060005260406000206000915090505481565b600360009054906101000a900473ffffffffffffffffffffffffffffffffffffffff1681565b61037b610a6d565b6103856000610af4565b565b60008060009054906101000a900473ffffffffffffffffffffffffffffffffffffffff16905090565b600360009054906101000a900473ffffffffffffffffffffffffffffffffffffffff1673ffffffffffffffffffffffffffffffffffffffff163373ffffffffffffffffffffffffffffffffffffffff1614610440576040517f08c379a000000000000000000000000000000000000000000000000000000000815260040161043790610fe2565b60405180910390fd5b60006064600754836104529190611031565b61045c91906110a2565b90508060046000600260009054906101000a900473ffffffffffffffffffffffffffffffffffffffff1673ffffffffffffffffffffffffffffffffffffffff1673ffffffffffffffffffffffffffffffffffffffff16815260200190815260200160002060008282546104cf91906110d3565b925050819055505050565b60066020528060005260406000206000915090505481565b60056020528060005260406000206000915090505481565b600360009054906101000a900473ffffffffffffffffffffffffffffffffffffffff1673ffffffffffffffffffffffffffffffffffffffff163373ffffffffffffffffffffffffffffffffffffffff161461059a576040517f08c379a000000000000000000000000000000000000000000000000000000000815260040161059190610fe2565b60405180910390fd5b60005b82518110156106df57600073ffffffffffffffffffffffffffffffffffffffff168382815181106105d1576105d0611107565b5b602002602001015173ffffffffffffffffffffffffffffffffffffffff1603156106df5760646005600083815260200190815260200160002054836106169190611031565b61062091906110a2565b6004600085848151811061063757610636611107565b5b602002602001015173ffffffffffffffffffffffffffffffffffffffff1673ffffffffffffffffffffffffffffffffffffffff168152602001908152602001600020600082825461068891906110d3565b9250508190555060646005600083815260200190815260200160002054836106b09190611031565b6106ba91906110a2565b600860008282546106cb91906110d3565b92505081905550808060010191505061059d565b505050565b600260009054906101000a900473ffffffffffffffffffffffffffffffffffffffff1681565b600160009054906101000a900473ffffffffffffffffffffffffffffffffffffffff1681565b60075481565b6000600460003373ffffffffffffffffffffffffffffffffffffffff1673ffffffffffffffffffffffffffffffffffffffff168152602001908152602001600020549050600081116107bd576040517f08c379a00000000000000000000000000000000000000000000000000000000081526004016107b490611182565b60405180910390fd5b6000600460003373ffffffffffffffffffffffffffffffffffffffff1673ffffffffffffffffffffffffffffffffffffffff16815260200190815260200160002081905550600160009054906101000a900473ffffffffffffffffffffffffffffffffffffffff1673ffffffffffffffffffffffffffffffffffffffff1663a9059cbb33836040518363ffffffff1660e01b815260040161085f9291906111a2565b6020604051808303816000875af115801561087e573d6000803e3d6000fd5b505050506040513d601f19601f820116820180604052508101906108a29190611203565b6108e1576040517f08c379a00000000000000000000000000000000000000000000000000000000081526004016108d89061127c565b60405180910390fd5b50565b60085481565b6108f2610a6d565b600073ffffffffffffffffffffffffffffffffffffffff168173ffffffffffffffffffffffffffffffffffffffff16036109645760006040517f1e4fbdf700000000000000000000000000000000000000000000000000000000815260040161095b9190610ca2565b60405180910390fd5b61096d81610af4565b50565b600360009054906101000a900473ffffffffffffffffffffffffffffffffffffffff1673ffffffffffffffffffffffffffffffffffffffff163373ffffffffffffffffffffffffffffffffffffffff1614610a00576040517f08c379a00000000000000000000000000000000000000000000000000000000081526004016109f790610fe2565b60405180910390fd5b6006600082815260200190815260200160002054600460008473ffffffffffffffffffffffffffffffffffffffff1673ffffffffffffffffffffffffffffffffffffffff1681526020019081526020016000206000828254610a6291906110d3565b925050819055505050565b610a75610bb8565b73ffffffffffffffffffffffffffffffffffffffff16610a93610387565b73ffffffffffffffffffffffffffffffffffffffff1614610af257610ab6610bb8565b6040517f118cdaa7000000000000000000000000000000000000000000000000000000008152600401610ae99190610ca2565b60405180910390fd5b565b60008060009054906101000a900473ffffffffffffffffffffffffffffffffffffffff169050816000806101000a81548173ffffffffffffffffffffffffffffffffffffffff021916908373ffffffffffffffffffffffffffffffffffffffff1602179055508173ffffffffffffffffffffffffffffffffffffffff168173ffffffffffffffffffffffffffffffffffffffff167f8be0079c531659141344cd1fd0a4f28419497f9722a3daafe3b4186f6b6457e060405160405180910390a35050565b600033905090565b6000604051905090565b600080fd5b600080fd5b600073ffffffffffffffffffffffffffffffffffffffff82169050919050565b6000610bff82610bd4565b9050919050565b610c0f81610bf4565b8114610c1a57600080fd5b50565b600081359050610c2c81610c06565b92915050565b600060208284031215610c4857610c47610bca565b5b6000610c5684828501610c1d565b91505092915050565b6000819050919050565b610c7281610c5f565b82525050565b6000602082019050610c8d6000830184610c69565b92915050565b610c9c81610bf4565b82525050565b6000602082019050610cb76000830184610c93565b92915050565b610cc681610c5f565b8114610cd157600080fd5b50565b600081359050610ce381610cbd565b92915050565b600060208284031215610cff57610cfe610bca565b5b6000610d0d84828501610cd4565b91505092915050565b600080fd5b6000601f19601f8301169050919050565b7f4e487b7100000000000000000000000000000000000000000000000000000000600052604160045260246000fd5b610d6482610d1b565b810181811067ffffffffffffffff82111715610d8357610d82610d2c565b5b80604052505050565b6000610d96610bc0565b9050610da28282610d5b565b919050565b600067ffffffffffffffff821115610dc257610dc1610d2c565b5b602082029050602081019050919050565b600080fd5b6000610deb610de684610da7565b610d8c565b90508083825260208201905060208402830185811115610e0e57610e0d610dd3565b5b835b81811015610e375780610e238882610c1d565b845260208401935050602081019050610e10565b5050509392505050565b600082601f830112610e5657610e55610d16565b5b8135610e66848260208601610dd8565b91505092915050565b60008060408385031215610e8657610e85610bca565b5b600083013567ffffffffffffffff811115610ea457610ea3610bcf565b5b610eb085828601610e41565b9250506020610ec185828601610cd4565b9150509250929050565b6000819050919050565b6000610ef0610eeb610ee684610bd4565b610ecb565b610bd4565b9050919050565b6000610f0282610ed5565b9050919050565b6000610f1482610ef7565b9050919050565b610f2481610f09565b82525050565b6000602082019050610f3f6000830184610f1b565b92915050565b60008060408385031215610f5c57610f5b610bca565b5b6000610f6a85828601610c1d565b9250506020610f7b85828601610cd4565b9150509250929050565b600082825260208201905092915050565b7f4e6565642043616c6c6572204d756c7469506f6f6c0000000000000000000000600082015250565b6000610fcc601583610f85565b9150610fd782610f96565b602082019050919050565b60006020820190508181036000830152610ffb81610fbf565b9050919050565b7f4e487b7100000000000000000000000000000000000000000000000000000000600052601160045260246000fd5b600061103c82610c5f565b915061104783610c5f565b925082820261105581610c5f565b9150828204841483151761106c5761106b611002565b5b5092915050565b7f4e487b7100000000000000000000000000000000000000000000000000000000600052601260045260246000fd5b60006110ad82610c5f565b91506110b883610c5f565b9250826110c8576110c7611073565b5b828204905092915050565b60006110de82610c5f565b91506110e983610c5f565b925082820190508082111561110157611100611002565b5b92915050565b7f4e487b7100000000000000000000000000000000000000000000000000000000600052603260045260246000fd5b7f4e6f207469656e657320666f6e646f732070617261207265636c616d61720000600082015250565b600061116c601e83610f85565b915061117782611136565b602082019050919050565b6000602082019050818103600083015261119b8161115f565b9050919050565b60006040820190506111b76000830185610c93565b6111c46020830184610c69565b9392505050565b60008115159050919050565b6111e0816111cb565b81146111eb57600080fd5b50565b6000815190506111fd816111d7565b92915050565b60006020828403121561121957611218610bca565b5b6000611227848285016111ee565b91505092915050565b7f5472616e73666572656e6369612066616c6c6964610000000000000000000000600082015250565b6000611266601583610f85565b915061127182611230565b602082019050919050565b6000602082019050818103600083015261129581611259565b905091905056fea2646970667358221220e43a73c7fbca2e3db13096004df0c313f9dff68be552bda3289ec76028ed729f64736f6c63430008180033",
  "linkReferences": {},
  "deployedLinkReferences": {}
}