{
  "_format": "hh-sol-artifact-1",
  "contractName": "multiPoolV3",
  "sourceName": "contracts/multiPoolV3.sol",
  "abi": [
    {
      "inputs": [
        {
          "internalType": "address",
          "name": "_usdtAddress",
          "type": "address"
        },
        {
          "internalType": "address",
          "name": "_projectWallet",
          "type": "address"
        }
      ],
      "stateMutability": "nonpayable",
      "type": "constructor"
    },
    {
      "anonymous": false,
      "inputs": [
        {
          "indexed": true,
          "internalType": "address",
          "name": "user",
          "type": "address"
        },
        {
          "indexed": false,
          "internalType": "uint256",
          "name": "amount",
          "type": "uint256"
        },
        {
          "indexed": false,
          "internalType": "uint256",
          "name": "poolId",
          "type": "uint256"
        },
        {
          "indexed": false,
          "internalType": "uint256",
          "name": "position",
          "type": "uint256"
        }
      ],
      "name": "ExceedingPayment",
      "type": "event"
    },
    {
      "anonymous": false,
      "inputs": [
        {
          "indexed": true,
          "internalType": "address",
          "name": "user",
          "type": "address"
        },
        {
          "indexed": false,
          "internalType": "uint256",
          "name": "poolId",
          "type": "uint256"
        },
        {
          "indexed": false,
          "internalType": "uint256",
          "name": "missedCount",
          "type": "uint256"
        }
      ],
      "name": "MissedOpportunity",
      "type": "event"
    },
    {
      "anonymous": false,
      "inputs": [
        {
          "indexed": true,
          "internalType": "address",
          "name": "user",
          "type": "address"
        },
        {
          "indexed": false,
          "internalType": "uint256",
          "name": "amount",
          "type": "uint256"
        },
        {
          "indexed": false,
          "internalType": "uint256",
          "name": "poolId",
          "type": "uint256"
        },
        {
          "indexed": false,
          "internalType": "uint256",
          "name": "position",
          "type": "uint256"
        }
      ],
      "name": "PaymentDistributed",
      "type": "event"
    },
    {
      "anonymous": false,
      "inputs": [
        {
          "indexed": true,
          "internalType": "address",
          "name": "user",
          "type": "address"
        },
        {
          "indexed": true,
          "internalType": "uint256",
          "name": "fromPool",
          "type": "uint256"
        },
        {
          "indexed": true,
          "internalType": "uint256",
          "name": "toPool",
          "type": "uint256"
        },
        {
          "indexed": false,
          "internalType": "uint256",
          "name": "position",
          "type": "uint256"
        }
      ],
      "name": "PoolAdvanced",
      "type": "event"
    },
    {
      "anonymous": false,
      "inputs": [
        {
          "indexed": true,
          "internalType": "address",
          "name": "user",
          "type": "address"
        },
        {
          "indexed": true,
          "internalType": "uint256",
          "name": "poolId",
          "type": "uint256"
        },
        {
          "indexed": false,
          "internalType": "uint256",
          "name": "position",
          "type": "uint256"
        }
      ],
      "name": "PoolJoined",
      "type": "event"
    },
    {
      "inputs": [],
      "name": "USDT",
      "outputs": [
        {
          "internalType": "contract IERC20",
          "name": "",
          "type": "address"
        }
      ],
      "stateMutability": "view",
      "type": "function"
    },
    {
      "inputs": [
        {
          "internalType": "address",
          "name": "userAddress",
          "type": "address"
        }
      ],
      "name": "getInfoUser",
      "outputs": [
        {
          "internalType": "address",
          "name": "",
          "type": "address"
        },
        {
          "internalType": "uint256",
          "name": "",
          "type": "uint256"
        },
        {
          "internalType": "uint256",
          "name": "",
          "type": "uint256"
        }
      ],
      "stateMutability": "view",
      "type": "function"
    },
    {
      "inputs": [
        {
          "internalType": "address",
          "name": "userAddress",
          "type": "address"
        }
      ],
      "name": "getPurchases",
      "outputs": [
        {
          "components": [
            {
              "internalType": "uint256",
              "name": "poolId",
              "type": "uint256"
            },
            {
              "internalType": "uint256",
              "name": "position",
              "type": "uint256"
            },
            {
              "internalType": "bool",
              "name": "hasPassed",
              "type": "bool"
            },
            {
              "internalType": "bool",
              "name": "startedInThisPool",
              "type": "bool"
            },
            {
              "internalType": "bool",
              "name": "canContribute",
              "type": "bool"
            }
          ],
          "internalType": "struct multiPoolV3.Purchase[]",
          "name": "",
          "type": "tuple[]"
        }
      ],
      "stateMutability": "view",
      "type": "function"
    },
    {
      "inputs": [
        {
          "internalType": "uint256",
          "name": "poolId",
          "type": "uint256"
        }
      ],
      "name": "getQueue",
      "outputs": [
        {
          "internalType": "address[]",
          "name": "",
          "type": "address[]"
        }
      ],
      "stateMutability": "view",
      "type": "function"
    },
    {
      "inputs": [
        {
          "internalType": "uint256",
          "name": "poolId",
          "type": "uint256"
        },
        {
          "internalType": "address",
          "name": "referrer",
          "type": "address"
        },
        {
          "internalType": "address",
          "name": "wallet",
          "type": "address"
        }
      ],
      "name": "joinPool",
      "outputs": [],
      "stateMutability": "nonpayable",
      "type": "function"
    },
    {
      "inputs": [
        {
          "internalType": "uint256",
          "name": "",
          "type": "uint256"
        }
      ],
      "name": "levels",
      "outputs": [
        {
          "internalType": "uint256",
          "name": "percentage",
          "type": "uint256"
        }
      ],
      "stateMutability": "view",
      "type": "function"
    },
    {
      "inputs": [],
      "name": "networkFeePercentage",
      "outputs": [
        {
          "internalType": "uint256",
          "name": "",
          "type": "uint256"
        }
      ],
      "stateMutability": "view",
      "type": "function"
    },
    {
      "inputs": [
        {
          "internalType": "uint256",
          "name": "",
          "type": "uint256"
        }
      ],
      "name": "payForExtraInPools",
      "outputs": [
        {
          "internalType": "uint256",
          "name": "",
          "type": "uint256"
        }
      ],
      "stateMutability": "view",
      "type": "function"
    },
    {
      "inputs": [
        {
          "internalType": "uint256",
          "name": "",
          "type": "uint256"
        }
      ],
      "name": "pools",
      "outputs": [
        {
          "internalType": "uint256",
          "name": "price",
          "type": "uint256"
        },
        {
          "internalType": "uint256",
          "name": "numUsers",
          "type": "uint256"
        }
      ],
      "stateMutability": "view",
      "type": "function"
    },
    {
      "inputs": [],
      "name": "projectFeePercentage",
      "outputs": [
        {
          "internalType": "uint256",
          "name": "",
          "type": "uint256"
        }
      ],
      "stateMutability": "view",
      "type": "function"
    },
    {
      "inputs": [],
      "name": "projectWallet",
      "outputs": [
        {
          "internalType": "address",
          "name": "",
          "type": "address"
        }
      ],
      "stateMutability": "view",
      "type": "function"
    },
    {
      "inputs": [],
      "name": "totalDistributed",
      "outputs": [
        {
          "internalType": "uint256",
          "name": "",
          "type": "uint256"
        }
      ],
      "stateMutability": "view",
      "type": "function"
    },
    {
      "inputs": [],
      "name": "totalExtra",
      "outputs": [
        {
          "internalType": "uint256",
          "name": "",
          "type": "uint256"
        }
      ],
      "stateMutability": "view",
      "type": "function"
    },
    {
      "inputs": [],
      "name": "totalPayed",
      "outputs": [
        {
          "internalType": "uint256",
          "name": "",
          "type": "uint256"
        }
      ],
      "stateMutability": "view",
      "type": "function"
    },
    {
      "inputs": [
        {
          "internalType": "address",
          "name": "",
          "type": "address"
        }
      ],
      "name": "users",
      "outputs": [
        {
          "internalType": "address",
          "name": "referrer",
          "type": "address"
        },
        {
          "internalType": "uint256",
          "name": "directReferrals",
          "type": "uint256"
        },
        {
          "internalType": "uint256",
          "name": "missedOpportunities",
          "type": "uint256"
        },
        {
          "internalType": "uint256",
          "name": "payedExtra",
          "type": "uint256"
        },
        {
          "internalType": "uint256",
          "name": "totalTree",
          "type": "uint256"
        }
      ],
      "stateMutability": "view",
      "type": "function"
    }
  ],
  "bytecode": "0x6080604052600a60065560146007553480156200001b57600080fd5b5060405162003e4738038062003e4783398181016040528101906200004191906200054c565b80600560006101000a81548173ffffffffffffffffffffffffffffffffffffffff021916908373ffffffffffffffffffffffffffffffffffffffff160217905550816000806101000a81548173ffffffffffffffffffffffffffffffffffffffff021916908373ffffffffffffffffffffffffffffffffffffffff1602179055506302faf0806002600060018152602001908152602001600020600001819055506305f5e100600260006002815260200190815260200160002060000181905550630bebc2006002600060038152602001908152602001600020600001819055506311e1a3006002600060048152602001908152602001600020600001819055506317d78400600260006005815260200190815260200160002060000181905550631dcd6500600260006006815260200190815260200160002060000181905550633b9aca0060026000600781526020019081526020016000206000018190555060036040518060200160405280600a815250908060018154018082558091505060019003906000526020600020016000909190919091506000820151816000015550506003604051806020016040528060038152509080600181540180825580915050600190039060005260206000200160009091909190915060008201518160000155505060036040518060200160405280600281525090806001815401808255809150506001900390600052602060002001600090919091909150600082015181600001555050600360405180602001604052806001815250908060018154018082558091505060019003906000526020600020016000909190919091506000820151816000015550506003604051806020016040528060018152509080600181540180825580915050600190039060005260206000200160009091909190915060008201518160000155505060036040518060200160405280600181525090806001815401808255809150506001900390600052602060002001600090919091909150600082015181600001555050600360405180602001604052806002815250908060018154018082558091505060019003906000526020600020016000909190919091506000820151816000015550506004600090806001815401808255809150506001900390600052602060002001600090919091909150556004624c4b409080600181540180825580915050600190039060005260206000200160009091909190915055600462989680908060018154018082558091505060019003906000526020600020016000909190919091505560046307270e0090806001815401808255809150506001900390600052602060002001600090919091909150556004630db5858090806001815401808255809150506001900390600052602060002001600090919091909150556004631443fd00908060018154018082558091505060019003906000526020600020016000909190919091505560046302faf08090806001815401808255809150506001900390600052602060002001600090919091909150556004635f5e10009080600181540180825580915050600190039060005260206000200160009091909190915055505062000593565b600080fd5b600073ffffffffffffffffffffffffffffffffffffffff82169050919050565b60006200051482620004e7565b9050919050565b620005268162000507565b81146200053257600080fd5b50565b60008151905062000546816200051b565b92915050565b60008060408385031215620005665762000565620004e2565b5b6000620005768582860162000535565b9250506020620005898582860162000535565b9150509250929050565b6138a480620005a36000396000f3fe608060405234801561001057600080fd5b50600436106100f55760003560e01c8063ac4afa3811610097578063bfe7145c11610066578063bfe7145c146102b5578063c54e44eb146102e5578063cbf4b23b14610303578063efca2eed14610321576100f5565b8063ac4afa3814610218578063b2596a6714610249578063bc57910314610279578063beb08ab914610297576100f5565b8063843fa808116100d3578063843fa8081461017857806393f7d5cf1461019457806399452393146101c6578063a87430ba146101e4576100f5565b80630be8fffc146100fa57806370cd5a801461012a5780637c3265421461015a575b600080fd5b610114600480360381019061010f9190612ae5565b61033f565b6040516101219190612c02565b60405180910390f35b610144600480360381019061013f9190612c50565b610434565b6040516101519190612dbe565b60405180910390f35b61016261053a565b60405161016f9190612def565b60405180910390f35b610192600480360381019061018d9190612e0a565b610540565b005b6101ae60048036038101906101a99190612c50565b610bbc565b6040516101bd93929190612e6c565b60405180910390f35b6101ce610cb7565b6040516101db9190612def565b60405180910390f35b6101fe60048036038101906101f99190612c50565b610cbd565b60405161020f959493929190612ea3565b60405180910390f35b610232600480360381019061022d9190612ae5565b610d13565b604051610240929190612ef6565b60405180910390f35b610263600480360381019061025e9190612ae5565b610d37565b6040516102709190612def565b60405180910390f35b610281610d61565b60405161028e9190612def565b60405180910390f35b61029f610d67565b6040516102ac9190612f1f565b60405180910390f35b6102cf60048036038101906102ca9190612ae5565b610d8d565b6040516102dc9190612def565b60405180910390f35b6102ed610db1565b6040516102fa9190612f99565b60405180910390f35b61030b610dd5565b6040516103189190612def565b60405180910390f35b610329610ddb565b6040516103369190612def565b60405180910390f35b606060018210158015610353575060078211155b610392576040517f08c379a000000000000000000000000000000000000000000000000000000000815260040161038990613011565b60405180910390fd5b6002600083815260200190815260200160002060020180548060200260200160405190810160405280929190818152602001828054801561042857602002820191906000526020600020905b8160009054906101000a900473ffffffffffffffffffffffffffffffffffffffff1673ffffffffffffffffffffffffffffffffffffffff16815260200190600101908083116103de575b50505050509050919050565b6060600160008373ffffffffffffffffffffffffffffffffffffffff1673ffffffffffffffffffffffffffffffffffffffff168152602001908152602001600020600001805480602002602001604051908101604052809291908181526020016000905b8282101561052f57838290600052602060002090600302016040518060a001604052908160008201548152602001600182015481526020016002820160009054906101000a900460ff161515151581526020016002820160019054906101000a900460ff161515151581526020016002820160029054906101000a900460ff16151515158152505081526020019060010190610498565b505050509050919050565b60075481565b60018310158015610552575060078311155b610591576040517f08c379a00000000000000000000000000000000000000000000000000000000081526004016105889061307d565b60405180910390fd5b3373ffffffffffffffffffffffffffffffffffffffff168273ffffffffffffffffffffffffffffffffffffffff16036105ff576040517f08c379a00000000000000000000000000000000000000000000000000000000081526004016105f69061310f565b60405180910390fd5b6000600160008373ffffffffffffffffffffffffffffffffffffffff1673ffffffffffffffffffffffffffffffffffffffff1681526020019081526020016000209050600060026000868152602001908152602001600020600101549050600082600001805490500361073d57838260010160006101000a81548173ffffffffffffffffffffffffffffffffffffffff021916908373ffffffffffffffffffffffffffffffffffffffff160217905550600073ffffffffffffffffffffffffffffffffffffffff168473ffffffffffffffffffffffffffffffffffffffff161461073c57600160008573ffffffffffffffffffffffffffffffffffffffff1673ffffffffffffffffffffffffffffffffffffffff16815260200190815260200160002060020160008154809291906107369061315e565b91905055505b5b3073ffffffffffffffffffffffffffffffffffffffff168373ffffffffffffffffffffffffffffffffffffffff16146108665760008054906101000a900473ffffffffffffffffffffffffffffffffffffffff1673ffffffffffffffffffffffffffffffffffffffff166323b872dd8430600260008a8152602001908152602001600020600001546040518463ffffffff1660e01b81526004016107e3939291906131a6565b6020604051808303816000875af1158015610802573d6000803e3d6000fd5b505050506040513d601f19601f820116820180604052508101906108269190613209565b610865576040517f08c379a000000000000000000000000000000000000000000000000000000000815260040161085c90613282565b60405180910390fd5b5b60026000868152602001908152602001600020600001546008600082825461088e91906132a2565b9250508190555060006002600087815260200190815260200160002060000154905060006064600654836108c291906132d6565b6108cc9190613347565b905060008054906101000a900473ffffffffffffffffffffffffffffffffffffffff1673ffffffffffffffffffffffffffffffffffffffff1663a9059cbb600560009054906101000a900473ffffffffffffffffffffffffffffffffffffffff16836040518363ffffffff1660e01b815260040161094b929190613378565b6020604051808303816000875af115801561096a573d6000803e3d6000fd5b505050506040513d601f19601f8201168201806040525081019061098e9190613209565b6109cd576040517f08c379a00000000000000000000000000000000000000000000000000000000081526004016109c4906133ed565b60405180910390fd5b836000016040518060a0016040528089815260200185815260200160001515815260200160058a101515158152602001600115158152509080600181540180825580915050600190039060005260206000209060030201600090919091909150600082015181600001556020820151816001015560408201518160020160006101000a81548160ff02191690831515021790555060608201518160020160016101000a81548160ff02191690831515021790555060808201518160020160026101000a81548160ff021916908315150217905550505060026000888152602001908152602001600020600201859080600181540180825580915050600190039060005260206000200160009091909190916101000a81548173ffffffffffffffffffffffffffffffffffffffff021916908373ffffffffffffffffffffffffffffffffffffffff160217905550600260008881526020019081526020016000206001016000815480929190610b419061315e565b9190505550868573ffffffffffffffffffffffffffffffffffffffff167f5d7a294516b4a1829eed3a951be2033d36906528a5bf9aa9760885fd55b0c7e885604051610b8d9190612def565b60405180910390a3610b9f8588610de1565b60038310610bb357610bb2876000611110565b5b50505050505050565b6000806000600160008573ffffffffffffffffffffffffffffffffffffffff1673ffffffffffffffffffffffffffffffffffffffff16815260200190815260200160002060010160009054906101000a900473ffffffffffffffffffffffffffffffffffffffff16600160008673ffffffffffffffffffffffffffffffffffffffff1673ffffffffffffffffffffffffffffffffffffffff16815260200190815260200160002060020154600160008773ffffffffffffffffffffffffffffffffffffffff1673ffffffffffffffffffffffffffffffffffffffff168152602001908152602001600020600301549250925092509193909250565b600a5481565b60016020528060005260406000206000915090508060010160009054906101000a900473ffffffffffffffffffffffffffffffffffffffff16908060020154908060030154908060040154908060050154905085565b60026020528060005260406000206000915090508060000154908060010154905082565b60038181548110610d4757600080fd5b906000526020600020016000915090508060000154905081565b60085481565b600560009054906101000a900473ffffffffffffffffffffffffffffffffffffffff1681565b60048181548110610d9d57600080fd5b906000526020600020016000915090505481565b60008054906101000a900473ffffffffffffffffffffffffffffffffffffffff1681565b60065481565b60095481565b6000600160008473ffffffffffffffffffffffffffffffffffffffff1673ffffffffffffffffffffffffffffffffffffffff16815260200190815260200160002060010160009054906101000a900473ffffffffffffffffffffffffffffffffffffffff16905060005b60038054905081108015610e8c5750600073ffffffffffffffffffffffffffffffffffffffff168273ffffffffffffffffffffffffffffffffffffffff1614155b1561110a576000606460038381548110610ea957610ea861340d565b5b90600052602060002001600001546002600087815260200190815260200160002060000154610ed891906132d6565b610ee29190613347565b905060008054906101000a900473ffffffffffffffffffffffffffffffffffffffff1673ffffffffffffffffffffffffffffffffffffffff1663a9059cbb84836040518363ffffffff1660e01b8152600401610f3f929190613378565b6020604051808303816000875af1158015610f5e573d6000803e3d6000fd5b505050506040513d601f19601f82011682018060405250810190610f829190613209565b610fc1576040517f08c379a0000000000000000000000000000000000000000000000000000000008152600401610fb890613488565b60405180910390fd5b80600160008573ffffffffffffffffffffffffffffffffffffffff1673ffffffffffffffffffffffffffffffffffffffff168152602001908152602001600020600501600082825461101391906132a2565b925050819055508273ffffffffffffffffffffffffffffffffffffffff167fb63d16ce268f739ee8d407f4fe2c19a45e8cb4a4771fc0f0c54af2c07836cf7a828660018661106191906132a2565b604051611070939291906134a8565b60405180910390a2806009600082825461108a91906132a2565b92505081905550600160008473ffffffffffffffffffffffffffffffffffffffff1673ffffffffffffffffffffffffffffffffffffffff16815260200190815260200160002060010160009054906101000a900473ffffffffffffffffffffffffffffffffffffffff1692505080806111029061315e565b915050610e4b565b50505050565b60018210158015611122575060078211155b611161576040517f08c379a00000000000000000000000000000000000000000000000000000000081526004016111589061307d565b60405180910390fd5b600260008381526020019081526020016000206001015481106111b9576040517f08c379a00000000000000000000000000000000000000000000000000000000081526004016111b09061352b565b60405180910390fd5b60006002600084815260200190815260200160002060020182815481106111e3576111e261340d565b5b9060005260206000200160009054906101000a900473ffffffffffffffffffffffffffffffffffffffff1690506000600160008373ffffffffffffffffffffffffffffffffffffffff1673ffffffffffffffffffffffffffffffffffffffff168152602001908152602001600020905060006112608286866114c0565b9050600061126d866115b4565b905080836002015410158061129057508160020160019054906101000a900460ff165b80156112a257506112a18686611626565b5b156112b7576112b2848787611abc565b6114b8565b8260030160008154809291906112cc9061315e565b91905055508373ffffffffffffffffffffffffffffffffffffffff167f982434c7ce9a7d98b21e4c0cdde4fa70352156fdcd44ea57a7c31217af1429ea87856003015460405161131d929190612ef6565b60405180910390a2600060018661133491906132a2565b90505b60026000888152602001908152602001600020600101548110156114b657600060026000898152602001908152602001600020600201828154811061137f5761137e61340d565b5b9060005260206000200160009054906101000a900473ffffffffffffffffffffffffffffffffffffffff1690506000600160008373ffffffffffffffffffffffffffffffffffffffff1673ffffffffffffffffffffffffffffffffffffffff168152602001908152602001600020905083816002015410158061141057508460020160019054906101000a900460ff165b801561142257506114218989611626565b5b1561143957611432828a85611abc565b50506114b6565b80600301600081548092919061144e9061315e565b91905055508173ffffffffffffffffffffffffffffffffffffffff167f982434c7ce9a7d98b21e4c0cdde4fa70352156fdcd44ea57a7c31217af1429ea8a836003015460405161149f929190612ef6565b60405180910390a250508080600101915050611337565b505b505050505050565b600080600090505b846000018054905081101561157157838560000182815481106114ee576114ed61340d565b5b90600052602060002090600302016000015414801561153357508285600001828154811061151f5761151e61340d565b5b906000526020600020906003020160010154145b156115645784600001818154811061154e5761154d61340d565b5b90600052602060002090600302019150506115ad565b80806001019150506114c8565b506040517f08c379a00000000000000000000000000000000000000000000000000000000081526004016115a490613597565b60405180910390fd5b9392505050565b6000600182036115c75760009050611621565b600282036115d85760019050611621565b600382036115e95760029050611621565b600482036115fa5760039050611621565b6005820361160b5760049050611621565b6006820361161c5760059050611621565b600090505b919050565b600080600090506000600367ffffffffffffffff81111561164a576116496135b7565b5b60405190808252806020026020018201604052801561168357816020015b611670612a7a565b8152602001906001900390816116685790505b50905060008060018661169691906132a2565b90505b6002600088815260200190815260200160002060020180549050811080156116c15750600384105b156118ca5760006002600089815260200190815260200160002060020182815481106116f0576116ef61340d565b5b9060005260206000200160009054906101000a900473ffffffffffffffffffffffffffffffffffffffff1690506000600160008373ffffffffffffffffffffffffffffffffffffffff1673ffffffffffffffffffffffffffffffffffffffff1681526020019081526020016000209050600080826000018054905090505b600081111561189e5760008360000160018361178a91906135e6565b8154811061179b5761179a61340d565b5b906000526020600020906003020190508b81600001541480156117cc57508060020160029054906101000a900460ff165b1561188a576001925060405180604001604052808673ffffffffffffffffffffffffffffffffffffffff16815260200160018461180991906135e6565b81525088888151811061181f5761181e61340d565b5b602002602001018190525060008460000160018461183d91906135e6565b8154811061184e5761184d61340d565b5b906000526020600020906003020160020160026101000a81548160ff02191690831515021790555086806118819061315e565b9750505061189e565b5080806118969061361a565b91505061176e565b5080156118b45786806118b09061315e565b9750505b50505080806118c29061315e565b915050611699565b506003831061199e5760005b60038110156119985760008382815181106118f4576118f361340d565b5b60200260200101519050600060016000836000015173ffffffffffffffffffffffffffffffffffffffff1673ffffffffffffffffffffffffffffffffffffffff16815260200190815260200160002090506000816000018360200151815481106119615761196061340d565b5b906000526020600020906003020160020160026101000a81548160ff021916908315150217905550505080806001019150506118d6565b50611aae565b60005b6003811015611aa15760008382815181106119bf576119be61340d565b5b60200260200101519050600073ffffffffffffffffffffffffffffffffffffffff16816000015173ffffffffffffffffffffffffffffffffffffffff1603611a075750611aa1565b600060016000836000015173ffffffffffffffffffffffffffffffffffffffff1673ffffffffffffffffffffffffffffffffffffffff1681526020019081526020016000209050600181600001836020015181548110611a6a57611a6961340d565b5b906000526020600020906003020160020160026101000a81548160ff021916908315150217905550505080806001019150506119a1565b5060009350505050611ab6565b600193505050505b92915050565b6000600160008573ffffffffffffffffffffffffffffffffffffffff1673ffffffffffffffffffffffffffffffffffffffff16815260200190815260200160002090506000611b0c8285856114c0565b905060018160020160006101000a81548160ff0219169083151502179055506000600185611b3a91906132a2565b9050611b468585611e93565b60008490505b6002600087815260200190815260200160002060020180549050811015611c3b576000600260008881526020019081526020016000206002018281548110611b9757611b9661340d565b5b9060005260206000200160009054906101000a900473ffffffffffffffffffffffffffffffffffffffff1690506000600160008373ffffffffffffffffffffffffffffffffffffffff1673ffffffffffffffffffffffffffffffffffffffff16815260200190815260200160002090506000611c20828a600187611c1b91906132a2565b6114c0565b90508381600101819055505050508080600101915050611b4c565b5060008054906101000a900473ffffffffffffffffffffffffffffffffffffffff1673ffffffffffffffffffffffffffffffffffffffff1663a9059cbb8760048881548110611c8d57611c8c61340d565b5b90600052602060002001546040518363ffffffff1660e01b8152600401611cb5929190613378565b6020604051808303816000875af1158015611cd4573d6000803e3d6000fd5b505050506040513d601f19601f82011682018060405250810190611cf89190613209565b611d37576040517f08c379a0000000000000000000000000000000000000000000000000000000008152600401611d2e9061368f565b60405180910390fd5b8573ffffffffffffffffffffffffffffffffffffffff167f2cc6d11dfc632469e7f760bc6cc605413cb63f6d83af3384862007655d91f33860048781548110611d8357611d8261340d565b5b90600052602060002001548787604051611d9f939291906134a8565b60405180910390a260048581548110611dbb57611dba61340d565b5b9060005260206000200154600a6000828254611dd791906132a2565b9250508190555060048581548110611df257611df161340d565b5b9060005260206000200154836004016000828254611e1091906132a2565b9250508190555060078503611e3057611e2b60016003612345565b611e8b565b611e3a81876126b9565b80858773ffffffffffffffffffffffffffffffffffffffff167fa4b503cf1a0317bfa062a721bd5edaa915a397798f63635c14deeccf2f17e40b87604051611e829190612def565b60405180910390a45b505050505050565b60026000838152602001908152602001600020600201805490508110611eee576040517f08c379a0000000000000000000000000000000000000000000000000000000008152600401611ee5906136fb565b60405180910390fd5b6000600260008481526020019081526020016000206002018281548110611f1857611f1761340d565b5b9060005260206000200160009054906101000a900473ffffffffffffffffffffffffffffffffffffffff1690506000600160008373ffffffffffffffffffffffffffffffffffffffff1673ffffffffffffffffffffffffffffffffffffffff168152602001908152602001600020905060005b81600001805490508110156121a75784826000018281548110611fb157611fb061340d565b5b906000526020600020906003020160000154148015611ff6575083826000018281548110611fe257611fe161340d565b5b906000526020600020906003020160010154145b1561219a5760008190505b6001836000018054905061201591906135e6565b81101561211b578260000160018261202d91906132a2565b8154811061203e5761203d61340d565b5b90600052602060002090600302018360000182815481106120625761206161340d565b5b906000526020600020906003020160008201548160000155600182015481600101556002820160009054906101000a900460ff168160020160006101000a81548160ff0219169083151502179055506002820160019054906101000a900460ff168160020160016101000a81548160ff0219169083151502179055506002820160029054906101000a900460ff168160020160026101000a81548160ff0219169083151502179055509050508080600101915050612001565b50816000018054806121305761212f61371b565b5b600190038181906000526020600020906003020160008082016000905560018201600090556002820160006101000a81549060ff02191690556002820160016101000a81549060ff02191690556002820160026101000a81549060ff0219169055505090556121a7565b8080600101915050611f8b565b5060008390505b600160026000878152602001908152602001600020600201805490506121d491906135e6565b8110156122b757600260008681526020019081526020016000206002016001826121fe91906132a2565b8154811061220f5761220e61340d565b5b9060005260206000200160009054906101000a900473ffffffffffffffffffffffffffffffffffffffff166002600087815260200190815260200160002060020182815481106122625761226161340d565b5b9060005260206000200160006101000a81548173ffffffffffffffffffffffffffffffffffffffff021916908373ffffffffffffffffffffffffffffffffffffffff16021790555080806001019150506121ae565b50600260008581526020019081526020016000206002018054806122de576122dd61371b565b5b6001900381819060005260206000200160006101000a81549073ffffffffffffffffffffffffffffffffffffffff0219169055905560026000858152602001908152602001600020600101600081548092919061233a9061361a565b919050555050505050565b60018210158015612357575060078211155b612396576040517f08c379a000000000000000000000000000000000000000000000000000000000815260040161238d9061307d565b60405180910390fd5b600081116123d9576040517f08c379a00000000000000000000000000000000000000000000000000000000081526004016123d0906137bc565b60405180910390fd5b8060026000848152602001908152602001600020600101541015612432576040517f08c379a00000000000000000000000000000000000000000000000000000000081526004016124299061384e565b60405180910390fd5b60005b8181101561252457600060026000600181526020019081526020016000206002016000815481106124695761246861340d565b5b9060005260206000200160009054906101000a900473ffffffffffffffffffffffffffffffffffffffff1690506000600160008373ffffffffffffffffffffffffffffffffffffffff1673ffffffffffffffffffffffffffffffffffffffff168152602001908152602001600020905060006124e882600160006114c0565b905060018160020160006101000a81548160ff0219169083151502179055506125148360016000611abc565b5050508080600101915050612435565b506000600290505b600781116126b4575b6003600260008381526020019081526020016000206001015411156126a1576000805b600260008481526020019081526020016000206001015481101561267c5760006002600085815260200190815260200160002060020182815481106125a05761259f61340d565b5b9060005260206000200160009054906101000a900473ffffffffffffffffffffffffffffffffffffffff1690506000600160008373ffffffffffffffffffffffffffffffffffffffff1673ffffffffffffffffffffffffffffffffffffffff1681526020019081526020016000209050600061261d8287866114c0565b9050612628866115b4565b826002015410158061264857508060020160019054906101000a900460ff165b1561265c5784806126589061315e565b9550505b6003851061266c5750505061267c565b5050508080600101915050612558565b506003811061269557612690826000611110565b61269b565b506126a1565b50612535565b80806126ac9061315e565b91505061252c565b505050565b600182101580156126cb575060078211155b61270a576040517f08c379a00000000000000000000000000000000000000000000000000000000081526004016127019061307d565b60405180910390fd5b6000600160008373ffffffffffffffffffffffffffffffffffffffff1673ffffffffffffffffffffffffffffffffffffffff1681526020019081526020016000209050600060026000858152602001908152602001600020600101549050600060026000868152602001908152602001600020600001549050600060646006548361279591906132d6565b61279f9190613347565b905060008054906101000a900473ffffffffffffffffffffffffffffffffffffffff1673ffffffffffffffffffffffffffffffffffffffff1663a9059cbb600560009054906101000a900473ffffffffffffffffffffffffffffffffffffffff16836040518363ffffffff1660e01b815260040161281e929190613378565b6020604051808303816000875af115801561283d573d6000803e3d6000fd5b505050506040513d601f19601f820116820180604052508101906128619190613209565b6128a0576040517f08c379a0000000000000000000000000000000000000000000000000000000008152600401612897906133ed565b60405180910390fd5b836000016040518060a00160405280888152602001858152602001600015158152602001600589101515158152602001600115158152509080600181540180825580915050600190039060005260206000209060030201600090919091909150600082015181600001556020820151816001015560408201518160020160006101000a81548160ff02191690831515021790555060608201518160020160016101000a81548160ff02191690831515021790555060808201518160020160026101000a81548160ff021916908315150217905550505060026000878152602001908152602001600020600201859080600181540180825580915050600190039060005260206000200160009091909190916101000a81548173ffffffffffffffffffffffffffffffffffffffff021916908373ffffffffffffffffffffffffffffffffffffffff160217905550600260008781526020019081526020016000206001016000815480929190612a149061315e565b9190505550858573ffffffffffffffffffffffffffffffffffffffff167f5d7a294516b4a1829eed3a951be2033d36906528a5bf9aa9760885fd55b0c7e885604051612a609190612def565b60405180910390a3612a728587610de1565b505050505050565b6040518060400160405280600073ffffffffffffffffffffffffffffffffffffffff168152602001600081525090565b600080fd5b6000819050919050565b612ac281612aaf565b8114612acd57600080fd5b50565b600081359050612adf81612ab9565b92915050565b600060208284031215612afb57612afa612aaa565b5b6000612b0984828501612ad0565b91505092915050565b600081519050919050565b600082825260208201905092915050565b6000819050602082019050919050565b600073ffffffffffffffffffffffffffffffffffffffff82169050919050565b6000612b6982612b3e565b9050919050565b612b7981612b5e565b82525050565b6000612b8b8383612b70565b60208301905092915050565b6000602082019050919050565b6000612baf82612b12565b612bb98185612b1d565b9350612bc483612b2e565b8060005b83811015612bf5578151612bdc8882612b7f565b9750612be783612b97565b925050600181019050612bc8565b5085935050505092915050565b60006020820190508181036000830152612c1c8184612ba4565b905092915050565b612c2d81612b5e565b8114612c3857600080fd5b50565b600081359050612c4a81612c24565b92915050565b600060208284031215612c6657612c65612aaa565b5b6000612c7484828501612c3b565b91505092915050565b600081519050919050565b600082825260208201905092915050565b6000819050602082019050919050565b612cb281612aaf565b82525050565b60008115159050919050565b612ccd81612cb8565b82525050565b60a082016000820151612ce96000850182612ca9565b506020820151612cfc6020850182612ca9565b506040820151612d0f6040850182612cc4565b506060820151612d226060850182612cc4565b506080820151612d356080850182612cc4565b50505050565b6000612d478383612cd3565b60a08301905092915050565b6000602082019050919050565b6000612d6b82612c7d565b612d758185612c88565b9350612d8083612c99565b8060005b83811015612db1578151612d988882612d3b565b9750612da383612d53565b925050600181019050612d84565b5085935050505092915050565b60006020820190508181036000830152612dd88184612d60565b905092915050565b612de981612aaf565b82525050565b6000602082019050612e046000830184612de0565b92915050565b600080600060608486031215612e2357612e22612aaa565b5b6000612e3186828701612ad0565b9350506020612e4286828701612c3b565b9250506040612e5386828701612c3b565b9150509250925092565b612e6681612b5e565b82525050565b6000606082019050612e816000830186612e5d565b612e8e6020830185612de0565b612e9b6040830184612de0565b949350505050565b600060a082019050612eb86000830188612e5d565b612ec56020830187612de0565b612ed26040830186612de0565b612edf6060830185612de0565b612eec6080830184612de0565b9695505050505050565b6000604082019050612f0b6000830185612de0565b612f186020830184612de0565b9392505050565b6000602082019050612f346000830184612e5d565b92915050565b6000819050919050565b6000612f5f612f5a612f5584612b3e565b612f3a565b612b3e565b9050919050565b6000612f7182612f44565b9050919050565b6000612f8382612f66565b9050919050565b612f9381612f78565b82525050565b6000602082019050612fae6000830184612f8a565b92915050565b600082825260208201905092915050565b7f506f6f6c206e6f2076616c696461000000000000000000000000000000000000600082015250565b6000612ffb600e83612fb4565b915061300682612fc5565b602082019050919050565b6000602082019050818103600083015261302a81612fee565b9050919050565b7f506f6f6c206e6f2076616c69646f000000000000000000000000000000000000600082015250565b6000613067600e83612fb4565b915061307282613031565b602082019050919050565b600060208201905081810360008301526130968161305a565b9050919050565b7f4e6f20657320706f7369626c6520717565207365617320656c206d69736d6f2060008201527f73706f6e736f7200000000000000000000000000000000000000000000000000602082015250565b60006130f9602783612fb4565b91506131048261309d565b604082019050919050565b60006020820190508181036000830152613128816130ec565b9050919050565b7f4e487b7100000000000000000000000000000000000000000000000000000000600052601160045260246000fd5b600061316982612aaf565b91507fffffffffffffffffffffffffffffffffffffffffffffffffffffffffffffffff820361319b5761319a61312f565b5b600182019050919050565b60006060820190506131bb6000830186612e5d565b6131c86020830185612e5d565b6131d56040830184612de0565b949350505050565b6131e681612cb8565b81146131f157600080fd5b50565b600081519050613203816131dd565b92915050565b60006020828403121561321f5761321e612aaa565b5b600061322d848285016131f4565b91505092915050565b7f5472616e73666572656e6369612066616c6c6964610000000000000000000000600082015250565b600061326c601583612fb4565b915061327782613236565b602082019050919050565b6000602082019050818103600083015261329b8161325f565b9050919050565b60006132ad82612aaf565b91506132b883612aaf565b92508282019050808211156132d0576132cf61312f565b5b92915050565b60006132e182612aaf565b91506132ec83612aaf565b92508282026132fa81612aaf565b915082820484148315176133115761331061312f565b5b5092915050565b7f4e487b7100000000000000000000000000000000000000000000000000000000600052601260045260246000fd5b600061335282612aaf565b915061335d83612aaf565b92508261336d5761336c613318565b5b828204905092915050565b600060408201905061338d6000830185612e5d565b61339a6020830184612de0565b9392505050565b7f5061676f20616c2070726f796563746f2066616c6c69646f0000000000000000600082015250565b60006133d7601883612fb4565b91506133e2826133a1565b602082019050919050565b60006020820190508181036000830152613406816133ca565b9050919050565b7f4e487b7100000000000000000000000000000000000000000000000000000000600052603260045260246000fd5b7f5061676f20616c20726566657269646f2066616c6c69646f0000000000000000600082015250565b6000613472601883612fb4565b915061347d8261343c565b602082019050919050565b600060208201905081810360008301526134a181613465565b9050919050565b60006060820190506134bd6000830186612de0565b6134ca6020830185612de0565b6134d76040830184612de0565b949350505050565b7f506f736963696f6e206e6f2076616c69646120656e20656c20706f6f6c000000600082015250565b6000613515601d83612fb4565b9150613520826134df565b602082019050919050565b6000602082019050818103600083015261354481613508565b9050919050565b7f436f6d707261206e6f20656e636f6e7472616461000000000000000000000000600082015250565b6000613581601483612fb4565b915061358c8261354b565b602082019050919050565b600060208201905081810360008301526135b081613574565b9050919050565b7f4e487b7100000000000000000000000000000000000000000000000000000000600052604160045260246000fd5b60006135f182612aaf565b91506135fc83612aaf565b92508282039050818111156136145761361361312f565b5b92915050565b600061362582612aaf565b9150600082036136385761363761312f565b5b600182039050919050565b7f5061676f206465206176616e63652066616c6c69646f00000000000000000000600082015250565b6000613679601683612fb4565b915061368482613643565b602082019050919050565b600060208201905081810360008301526136a88161366c565b9050919050565b7f506f736963696f6e206e6f2076616c6964610000000000000000000000000000600082015250565b60006136e5601283612fb4565b91506136f0826136af565b602082019050919050565b60006020820190508181036000830152613714816136d8565b9050919050565b7f4e487b7100000000000000000000000000000000000000000000000000000000600052603160045260246000fd5b7f506f736963696f6e65732061206d6f76657220646562656e20736572206d617960008201527f6f72206120300000000000000000000000000000000000000000000000000000602082015250565b60006137a6602683612fb4565b91506137b18261374a565b604082019050919050565b600060208201905081810360008301526137d581613799565b9050919050565b7f4e6f2068617920737566696369656e746573207573756172696f7320656e206c60008201527f6120506f6f6c0000000000000000000000000000000000000000000000000000602082015250565b6000613838602683612fb4565b9150613843826137dc565b604082019050919050565b600060208201905081810360008301526138678161382b565b905091905056fea2646970667358221220bc3a4e0843bc4d20bdac1109bd03cbc81d2eecfc4e2fbec241826de082c1b72864736f6c63430008180033",
  "linkReferences": {},
  "deployedLinkReferences": {}
}