{
  "_format": "hh-sol-artifact-1",
  "contractName": "multiPoolV7",
  "sourceName": "contracts/multiPoolV7.sol",
  "abi": [
    {
      "inputs": [
        {
          "internalType": "address",
          "name": "_usdtAddress",
          "type": "address"
        },
        {
          "internalType": "address",
          "name": "_paymentContractAddress",
          "type": "address"
        }
      ],
      "stateMutability": "nonpayable",
      "type": "constructor"
    },
    {
      "inputs": [],
      "name": "USDT",
      "outputs": [
        {
          "internalType": "contract IERC20",
          "name": "",
          "type": "address"
        }
      ],
      "stateMutability": "view",
      "type": "function"
    },
    {
      "inputs": [
        {
          "internalType": "address",
          "name": "",
          "type": "address"
        }
      ],
      "name": "directReferrals",
      "outputs": [
        {
          "internalType": "address",
          "name": "",
          "type": "address"
        }
      ],
      "stateMutability": "view",
      "type": "function"
    },
    {
      "inputs": [
        {
          "internalType": "uint256",
          "name": "poolId",
          "type": "uint256"
        }
      ],
      "name": "getCanPass",
      "outputs": [
        {
          "internalType": "address[]",
          "name": "",
          "type": "address[]"
        }
      ],
      "stateMutability": "view",
      "type": "function"
    },
    {
      "inputs": [
        {
          "internalType": "uint256",
          "name": "poolId",
          "type": "uint256"
        }
      ],
      "name": "getQueue",
      "outputs": [
        {
          "internalType": "address[]",
          "name": "",
          "type": "address[]"
        }
      ],
      "stateMutability": "view",
      "type": "function"
    },
    {
      "inputs": [
        {
          "internalType": "uint256",
          "name": "poolId",
          "type": "uint256"
        },
        {
          "internalType": "address",
          "name": "referrer",
          "type": "address"
        }
      ],
      "name": "joinPool",
      "outputs": [],
      "stateMutability": "nonpayable",
      "type": "function"
    },
    {
      "inputs": [
        {
          "internalType": "address",
          "name": "",
          "type": "address"
        }
      ],
      "name": "numberOfDirects",
      "outputs": [
        {
          "internalType": "uint256",
          "name": "",
          "type": "uint256"
        }
      ],
      "stateMutability": "view",
      "type": "function"
    },
    {
      "inputs": [],
      "name": "paymentContract",
      "outputs": [
        {
          "internalType": "contract PaymentContractV7",
          "name": "",
          "type": "address"
        }
      ],
      "stateMutability": "view",
      "type": "function"
    },
    {
      "inputs": [
        {
          "internalType": "uint256",
          "name": "",
          "type": "uint256"
        }
      ],
      "name": "pools",
      "outputs": [
        {
          "internalType": "uint256",
          "name": "price",
          "type": "uint256"
        },
        {
          "internalType": "uint256",
          "name": "numUsers",
          "type": "uint256"
        },
        {
          "internalType": "uint256",
          "name": "newUsers",
          "type": "uint256"
        },
        {
          "internalType": "uint256",
          "name": "minRefferals",
          "type": "uint256"
        }
      ],
      "stateMutability": "view",
      "type": "function"
    }
  ],
  "bytecode": "0x60806040523480156200001157600080fd5b5060405162002ce638038062002ce68339818101604052810190620000379190620002d4565b816000806101000a81548173ffffffffffffffffffffffffffffffffffffffff021916908373ffffffffffffffffffffffffffffffffffffffff16021790555080600160006101000a81548173ffffffffffffffffffffffffffffffffffffffff021916908373ffffffffffffffffffffffffffffffffffffffff1602179055506302faf0806002600060018152602001908152602001600020600001819055506305f5e100600260006002815260200190815260200160002060000181905550630bebc2006002600060038152602001908152602001600020600001819055506311e1a3006002600060048152602001908152602001600020600001819055506317d78400600260006005815260200190815260200160002060000181905550631dcd6500600260006006815260200190815260200160002060000181905550633b9aca006002600060078152602001908152602001600020600001819055506000600260006001815260200190815260200160002060050181905550600160026000600281526020019081526020016000206005018190555060028060006003815260200190815260200160002060050181905550600360026000600481526020019081526020016000206005018190555060046002600060058152602001908152602001600020600501819055506005600260006006815260200190815260200160002060050181905550600060026000600781526020019081526020016000206005018190555050506200031b565b600080fd5b600073ffffffffffffffffffffffffffffffffffffffff82169050919050565b60006200029c826200026f565b9050919050565b620002ae816200028f565b8114620002ba57600080fd5b50565b600081519050620002ce81620002a3565b92915050565b60008060408385031215620002ee57620002ed6200026a565b5b6000620002fe85828601620002bd565b92505060206200031185828601620002bd565b9150509250929050565b6129bb806200032b6000396000f3fe608060405234801561001057600080fd5b50600436106100885760003560e01c8063a8eec7181161005b578063a8eec71814610127578063ac4afa3814610157578063c54e44eb1461018a578063d7c88d10146101a857610088565b80630be8fffc1461008d57806324dd80ae146100bd5780639c91dd56146100ed578063a45e6bc41461010b575b600080fd5b6100a760048036038101906100a29190611ff9565b6101d8565b6040516100b49190612116565b60405180910390f35b6100d760048036038101906100d29190612164565b6102cd565b6040516100e491906121a0565b60405180910390f35b6100f5610300565b604051610102919061221a565b60405180910390f35b61012560048036038101906101209190612235565b610326565b005b610141600480360381019061013c9190611ff9565b610b2f565b60405161014e9190612116565b60405180910390f35b610171600480360381019061016c9190611ff9565b610c24565b6040516101819493929190612284565b60405180910390f35b610192610c54565b60405161019f91906122ea565b60405180910390f35b6101c260048036038101906101bd9190612164565b610c78565b6040516101cf9190612305565b60405180910390f35b6060600182101580156101ec575060078211155b61022b576040517f08c379a00000000000000000000000000000000000000000000000000000000081526004016102229061237d565b60405180910390fd5b600260008381526020019081526020016000206002018054806020026020016040519081016040528092919081815260200182805480156102c157602002820191906000526020600020905b8160009054906101000a900473ffffffffffffffffffffffffffffffffffffffff1673ffffffffffffffffffffffffffffffffffffffff1681526020019060010190808311610277575b50505050509050919050565b60036020528060005260406000206000915054906101000a900473ffffffffffffffffffffffffffffffffffffffff1681565b600160009054906101000a900473ffffffffffffffffffffffffffffffffffffffff1681565b60018210158015610338575060078211155b610377576040517f08c379a000000000000000000000000000000000000000000000000000000000815260040161036e906123e9565b60405180910390fd5b3373ffffffffffffffffffffffffffffffffffffffff168173ffffffffffffffffffffffffffffffffffffffff16036103e5576040517f08c379a00000000000000000000000000000000000000000000000000000000081526004016103dc9061247b565b60405180910390fd5b60008054906101000a900473ffffffffffffffffffffffffffffffffffffffff1673ffffffffffffffffffffffffffffffffffffffff166323b872dd33600160009054906101000a900473ffffffffffffffffffffffffffffffffffffffff1660026000878152602001908152602001600020600001546040518463ffffffff1660e01b815260040161047a9392919061249b565b6020604051808303816000875af1158015610499573d6000803e3d6000fd5b505050506040513d601f19601f820116820180604052508101906104bd919061250a565b6104fc576040517f08c379a00000000000000000000000000000000000000000000000000000000081526004016104f390612583565b60405180910390fd5b600073ffffffffffffffffffffffffffffffffffffffff16600360003373ffffffffffffffffffffffffffffffffffffffff1673ffffffffffffffffffffffffffffffffffffffff16815260200190815260200160002060009054906101000a900473ffffffffffffffffffffffffffffffffffffffff1673ffffffffffffffffffffffffffffffffffffffff16036106635780600360003373ffffffffffffffffffffffffffffffffffffffff1673ffffffffffffffffffffffffffffffffffffffff16815260200190815260200160002060006101000a81548173ffffffffffffffffffffffffffffffffffffffff021916908373ffffffffffffffffffffffffffffffffffffffff160217905550600460008273ffffffffffffffffffffffffffffffffffffffff1673ffffffffffffffffffffffffffffffffffffffff168152602001908152602001600020600081548092919061065d906125d2565b91905055505b60026000838152602001908152602001600020600201339080600181540180825580915050600190039060005260206000200160009091909190916101000a81548173ffffffffffffffffffffffffffffffffffffffff021916908373ffffffffffffffffffffffffffffffffffffffff1602179055506002600083815260200190815260200160002060050154600460003373ffffffffffffffffffffffffffffffffffffffff1673ffffffffffffffffffffffffffffffffffffffff1681526020019081526020016000205410158061073f575060058210155b156107bc5760026000838152602001908152602001600020600301339080600181540180825580915050600190039060005260206000200160009091909190916101000a81548173ffffffffffffffffffffffffffffffffffffffff021916908373ffffffffffffffffffffffffffffffffffffffff1602179055505b6000600767ffffffffffffffff8111156107d9576107d861261a565b5b6040519080825280602002602001820160405280156108075781602001602082028036833780820191505090505b5090506000600360003373ffffffffffffffffffffffffffffffffffffffff1673ffffffffffffffffffffffffffffffffffffffff16815260200190815260200160002060009054906101000a900473ffffffffffffffffffffffffffffffffffffffff16905060005b8251811080156108ae5750600073ffffffffffffffffffffffffffffffffffffffff168273ffffffffffffffffffffffffffffffffffffffff1614155b156109ab57600073ffffffffffffffffffffffffffffffffffffffff168273ffffffffffffffffffffffffffffffffffffffff1603156109ab57818382815181106108fc576108fb612649565b5b602002602001019073ffffffffffffffffffffffffffffffffffffffff16908173ffffffffffffffffffffffffffffffffffffffff1681525050600360008373ffffffffffffffffffffffffffffffffffffffff1673ffffffffffffffffffffffffffffffffffffffff16815260200190815260200160002060009054906101000a900473ffffffffffffffffffffffffffffffffffffffff16915080806109a3906125d2565b915050610871565b50600160009054906101000a900473ffffffffffffffffffffffffffffffffffffffff1673ffffffffffffffffffffffffffffffffffffffff1663bcc035038360026000888152602001908152602001600020600001546040518363ffffffff1660e01b8152600401610a1f929190612678565b600060405180830381600087803b158015610a3957600080fd5b505af1158015610a4d573d6000803e3d6000fd5b50505050600160009054906101000a900473ffffffffffffffffffffffffffffffffffffffff1673ffffffffffffffffffffffffffffffffffffffff16639be61fab60026000878152602001908152602001600020600001546040518263ffffffff1660e01b8152600401610ac29190612305565b600060405180830381600087803b158015610adc57600080fd5b505af1158015610af0573d6000803e3d6000fd5b50505050600260008581526020019081526020016000206001016000815480929190610b1b906125d2565b9190505550610b2984610c90565b50505050565b606060018210158015610b43575060078211155b610b82576040517f08c379a0000000000000000000000000000000000000000000000000000000008152600401610b799061237d565b60405180910390fd5b60026000838152602001908152602001600020600301805480602002602001604051908101604052809291908181526020018280548015610c1857602002820191906000526020600020905b8160009054906101000a900473ffffffffffffffffffffffffffffffffffffffff1673ffffffffffffffffffffffffffffffffffffffff1681526020019060010190808311610bce575b50505050509050919050565b60026020528060005260406000206000915090508060000154908060010154908060040154908060050154905084565b60008054906101000a900473ffffffffffffffffffffffffffffffffffffffff1681565b60046020528060005260406000206000915090505481565b60018110158015610ca2575060078111155b610ce1576040517f08c379a0000000000000000000000000000000000000000000000000000000008152600401610cd8906123e9565b60405180910390fd5b6003600260008381526020019081526020016000206004015410158015610d2257506001600260008381526020019081526020016000206003018054905010155b15610d3557610d3081610d65565b610d62565b600260008281526020019081526020016000206004016000815480929190610d5c906125d2565b91905055505b50565b60018110158015610d77575060078111155b610db6576040517f08c379a0000000000000000000000000000000000000000000000000000000008152600401610dad906123e9565b60405180910390fd5b60078114610e955760026000600183610dcf91906126a8565b815260200190815260200160002060020160026000838152602001908152602001600020600301600081548110610e0957610e08612649565b5b9060005260206000200160009054906101000a900473ffffffffffffffffffffffffffffffffffffffff169080600181540180825580915050600190039060005260206000200160009091909190916101000a81548173ffffffffffffffffffffffffffffffffffffffff021916908373ffffffffffffffffffffffffffffffffffffffff1602179055505b600060026000838152602001908152602001600020600301600081548110610ec057610ebf612649565b5b9060005260206000200160009054906101000a900473ffffffffffffffffffffffffffffffffffffffff16905060005b60016002600085815260200190815260200160002060030180549050610f1691906126dc565b811015610ff95760026000848152602001908152602001600020600301600182610f4091906126a8565b81548110610f5157610f50612649565b5b9060005260206000200160009054906101000a900473ffffffffffffffffffffffffffffffffffffffff16600260008581526020019081526020016000206003018281548110610fa457610fa3612649565b5b9060005260206000200160006101000a81548173ffffffffffffffffffffffffffffffffffffffff021916908373ffffffffffffffffffffffffffffffffffffffff1602179055508080600101915050610ef0565b50600260008381526020019081526020016000206003018054806110205761101f612710565b5b6001900381819060005260206000200160006101000a81549073ffffffffffffffffffffffffffffffffffffffff0219169055905560005b6001600260008581526020019081526020016000206002018054905061107e91906126dc565b81101561116157600260008481526020019081526020016000206002016001826110a891906126a8565b815481106110b9576110b8612649565b5b9060005260206000200160009054906101000a900473ffffffffffffffffffffffffffffffffffffffff1660026000858152602001908152602001600020600201828154811061110c5761110b612649565b5b9060005260206000200160006101000a81548173ffffffffffffffffffffffffffffffffffffffff021916908373ffffffffffffffffffffffffffffffffffffffff1602179055508080600101915050611058565b506002600083815260200190815260200160002060020180548061118857611187612710565b5b6001900381819060005260206000200160006101000a81549073ffffffffffffffffffffffffffffffffffffffff02191690559055600360026000848152602001908152602001600020600401546111e091906126dc565b60026000848152602001908152602001600020600401819055506002600083815260200190815260200160002060010160008154809291906112219061273f565b91905055506002600060018461123791906126a8565b81526020019081526020016000206001016000815480929190611259906125d2565b91905055506002600060018461126f91906126a8565b815260200190815260200160002060050154600460008373ffffffffffffffffffffffffffffffffffffffff1673ffffffffffffffffffffffffffffffffffffffff16815260200190815260200160002054101580156112d0575060078214155b1561135957600260006001846112e691906126a8565b8152602001908152602001600020600301819080600181540180825580915050600190039060005260206000200160009091909190916101000a81548173ffffffffffffffffffffffffffffffffffffffff021916908373ffffffffffffffffffffffffffffffffffffffff1602179055505b6000600767ffffffffffffffff8111156113765761137561261a565b5b6040519080825280602002602001820160405280156113a45781602001602082028036833780820191505090505b5090506000600360008473ffffffffffffffffffffffffffffffffffffffff1673ffffffffffffffffffffffffffffffffffffffff16815260200190815260200160002060009054906101000a900473ffffffffffffffffffffffffffffffffffffffff16905060005b82518110801561144b5750600073ffffffffffffffffffffffffffffffffffffffff168273ffffffffffffffffffffffffffffffffffffffff1614155b1561154857600073ffffffffffffffffffffffffffffffffffffffff168273ffffffffffffffffffffffffffffffffffffffff160315611548578183828151811061149957611498612649565b5b602002602001019073ffffffffffffffffffffffffffffffffffffffff16908173ffffffffffffffffffffffffffffffffffffffff1681525050600360008373ffffffffffffffffffffffffffffffffffffffff1673ffffffffffffffffffffffffffffffffffffffff16815260200190815260200160002060009054906101000a900473ffffffffffffffffffffffffffffffffffffffff1691508080611540906125d2565b91505061140e565b50600784146116b257600160009054906101000a900473ffffffffffffffffffffffffffffffffffffffff1673ffffffffffffffffffffffffffffffffffffffff1663bcc0350383600260006001896115a191906126a8565b8152602001908152602001600020600001546040518363ffffffff1660e01b81526004016115d0929190612678565b600060405180830381600087803b1580156115ea57600080fd5b505af11580156115fe573d6000803e3d6000fd5b50505050600160009054906101000a900473ffffffffffffffffffffffffffffffffffffffff1673ffffffffffffffffffffffffffffffffffffffff16639be61fab6002600060018861165191906126a8565b8152602001908152602001600020600001546040518263ffffffff1660e01b815260040161167f9190612305565b600060405180830381600087803b15801561169957600080fd5b505af11580156116ad573d6000803e3d6000fd5b505050505b600160009054906101000a900473ffffffffffffffffffffffffffffffffffffffff1673ffffffffffffffffffffffffffffffffffffffff1663f43de38784866040518363ffffffff1660e01b815260040161170f929190612768565b600060405180830381600087803b15801561172957600080fd5b505af115801561173d573d6000803e3d6000fd5b50505050600784146117635761175e60018561175991906126a8565b610c90565b611e36565b600360026000600181526020019081526020016000206002018054905010156117c1576040517f08c379a00000000000000000000000000000000000000000000000000000000081526004016117b890612803565b60405180910390fd5b6003600260006001815260200190815260200160002060030180549050101561181f576040517f08c379a000000000000000000000000000000000000000000000000000000000815260040161181690612895565b60405180910390fd5b60005b60038110156119df5760006002600060018152602001908152602001600020600201828154811061185657611855612649565b5b9060005260206000200160009054906101000a900473ffffffffffffffffffffffffffffffffffffffff1690506002600060028152602001908152602001600020600201819080600181540180825580915050600190039060005260206000200160009091909190916101000a81548173ffffffffffffffffffffffffffffffffffffffff021916908373ffffffffffffffffffffffffffffffffffffffff160217905550600260006002815260200190815260200160002060050154600460008373ffffffffffffffffffffffffffffffffffffffff1673ffffffffffffffffffffffffffffffffffffffff16815260200190815260200160002054106119d1576002600060028152602001908152602001600020600301819080600181540180825580915050600190039060005260206000200160009091909190916101000a81548173ffffffffffffffffffffffffffffffffffffffff021916908373ffffffffffffffffffffffffffffffffffffffff1602179055505b508080600101915050611822565b5060005b6003600260006001815260200190815260200160002060020180549050611a0a91906126dc565b811015611aef576002600060018152602001908152602001600020600201600382611a3591906126a8565b81548110611a4657611a45612649565b5b9060005260206000200160009054906101000a900473ffffffffffffffffffffffffffffffffffffffff1660026000600181526020019081526020016000206002018281548110611a9a57611a99612649565b5b9060005260206000200160006101000a81548173ffffffffffffffffffffffffffffffffffffffff021916908373ffffffffffffffffffffffffffffffffffffffff16021790555080806001019150506119e3565b5060005b6003811015611b65576002600060018152602001908152602001600020600201805480611b2357611b22612710565b5b6001900381819060005260206000200160006101000a81549073ffffffffffffffffffffffffffffffffffffffff021916905590558080600101915050611af3565b5060005b6003600260006001815260200190815260200160002060030180549050611b9091906126dc565b811015611c75576002600060018152602001908152602001600020600301600382611bbb91906126a8565b81548110611bcc57611bcb612649565b5b9060005260206000200160009054906101000a900473ffffffffffffffffffffffffffffffffffffffff1660026000600181526020019081526020016000206003018281548110611c2057611c1f612649565b5b9060005260206000200160006101000a81548173ffffffffffffffffffffffffffffffffffffffff021916908373ffffffffffffffffffffffffffffffffffffffff1602179055508080600101915050611b69565b5060005b6003811015611ceb576002600060018152602001908152602001600020600301805480611ca957611ca8612710565b5b6001900381819060005260206000200160006101000a81549073ffffffffffffffffffffffffffffffffffffffff021916905590558080600101915050611c79565b50600360026000600181526020019081526020016000206001016000828254611d1491906126dc565b92505081905550600360026000600281526020019081526020016000206001016000828254611d4391906126a8565b92505081905550611d886040518060400160405280600c81526020017f63616e7469646164212121210000000000000000000000000000000000000000815250611e3c565b611da8600260006002815260200190815260200160002060040154611ed5565b600360026000600281526020019081526020016000206004016000828254611dd091906126a8565b92505081905550611e156040518060400160405280600d81526020017f63616e7469646164322121212100000000000000000000000000000000000000815250611e3c565b611e35600260006002815260200190815260200160002060040154611ed5565b5b50505050565b611ed281604051602401611e509190612934565b6040516020818303038152906040527f41304fac000000000000000000000000000000000000000000000000000000007bffffffffffffffffffffffffffffffffffffffffffffffffffffffff19166020820180517bffffffffffffffffffffffffffffffffffffffffffffffffffffffff8381831617835250505050611f6e565b50565b611f6b81604051602401611ee99190612305565b6040516020818303038152906040527ff82c50f1000000000000000000000000000000000000000000000000000000007bffffffffffffffffffffffffffffffffffffffffffffffffffffffff19166020820180517bffffffffffffffffffffffffffffffffffffffffffffffffffffffff8381831617835250505050611f6e565b50565b611f8581611f7d611f88611fa9565b63ffffffff16565b50565b60006a636f6e736f6c652e6c6f679050600080835160208501845afa505050565b611fb4819050919050565b611fbc612956565b565b600080fd5b6000819050919050565b611fd681611fc3565b8114611fe157600080fd5b50565b600081359050611ff381611fcd565b92915050565b60006020828403121561200f5761200e611fbe565b5b600061201d84828501611fe4565b91505092915050565b600081519050919050565b600082825260208201905092915050565b6000819050602082019050919050565b600073ffffffffffffffffffffffffffffffffffffffff82169050919050565b600061207d82612052565b9050919050565b61208d81612072565b82525050565b600061209f8383612084565b60208301905092915050565b6000602082019050919050565b60006120c382612026565b6120cd8185612031565b93506120d883612042565b8060005b838110156121095781516120f08882612093565b97506120fb836120ab565b9250506001810190506120dc565b5085935050505092915050565b6000602082019050818103600083015261213081846120b8565b905092915050565b61214181612072565b811461214c57600080fd5b50565b60008135905061215e81612138565b92915050565b60006020828403121561217a57612179611fbe565b5b60006121888482850161214f565b91505092915050565b61219a81612072565b82525050565b60006020820190506121b56000830184612191565b92915050565b6000819050919050565b60006121e06121db6121d684612052565b6121bb565b612052565b9050919050565b60006121f2826121c5565b9050919050565b6000612204826121e7565b9050919050565b612214816121f9565b82525050565b600060208201905061222f600083018461220b565b92915050565b6000806040838503121561224c5761224b611fbe565b5b600061225a85828601611fe4565b925050602061226b8582860161214f565b9150509250929050565b61227e81611fc3565b82525050565b60006080820190506122996000830187612275565b6122a66020830186612275565b6122b36040830185612275565b6122c06060830184612275565b95945050505050565b60006122d4826121e7565b9050919050565b6122e4816122c9565b82525050565b60006020820190506122ff60008301846122db565b92915050565b600060208201905061231a6000830184612275565b92915050565b600082825260208201905092915050565b7f506f6f6c206e6f2076616c696461000000000000000000000000000000000000600082015250565b6000612367600e83612320565b915061237282612331565b602082019050919050565b600060208201905081810360008301526123968161235a565b9050919050565b7f506f6f6c206e6f2076616c69646f000000000000000000000000000000000000600082015250565b60006123d3600e83612320565b91506123de8261239d565b602082019050919050565b60006020820190508181036000830152612402816123c6565b9050919050565b7f4e6f20657320706f7369626c6520717565207365617320656c206d69736d6f2060008201527f73706f6e736f7200000000000000000000000000000000000000000000000000602082015250565b6000612465602783612320565b915061247082612409565b604082019050919050565b6000602082019050818103600083015261249481612458565b9050919050565b60006060820190506124b06000830186612191565b6124bd6020830185612191565b6124ca6040830184612275565b949350505050565b60008115159050919050565b6124e7816124d2565b81146124f257600080fd5b50565b600081519050612504816124de565b92915050565b6000602082840312156125205761251f611fbe565b5b600061252e848285016124f5565b91505092915050565b7f5472616e73666572656e6369612066616c6c6964610000000000000000000000600082015250565b600061256d601583612320565b915061257882612537565b602082019050919050565b6000602082019050818103600083015261259c81612560565b9050919050565b7f4e487b7100000000000000000000000000000000000000000000000000000000600052601160045260246000fd5b60006125dd82611fc3565b91507fffffffffffffffffffffffffffffffffffffffffffffffffffffffffffffffff820361260f5761260e6125a3565b5b600182019050919050565b7f4e487b7100000000000000000000000000000000000000000000000000000000600052604160045260246000fd5b7f4e487b7100000000000000000000000000000000000000000000000000000000600052603260045260246000fd5b6000604082019050818103600083015261269281856120b8565b90506126a16020830184612275565b9392505050565b60006126b382611fc3565b91506126be83611fc3565b92508282019050808211156126d6576126d56125a3565b5b92915050565b60006126e782611fc3565b91506126f283611fc3565b925082820390508181111561270a576127096125a3565b5b92915050565b7f4e487b7100000000000000000000000000000000000000000000000000000000600052603160045260246000fd5b600061274a82611fc3565b91506000820361275d5761275c6125a3565b5b600182039050919050565b600060408201905061277d6000830185612191565b61278a6020830184612275565b9392505050565b7f4465626520686162657220616c206d656e6f73203320706572736f6e6173206560008201527f6e206c6120506f6f6c2031000000000000000000000000000000000000000000602082015250565b60006127ed602b83612320565b91506127f882612791565b604082019050919050565b6000602082019050818103600083015261281c816127e0565b9050919050565b7f4465626520686162657220616c206d656e6f73203320706572736f6e6173206560008201527f6e2063616e50617373206465206c6120506f6f6c203100000000000000000000602082015250565b600061287f603683612320565b915061288a82612823565b604082019050919050565b600060208201905081810360008301526128ae81612872565b9050919050565b600081519050919050565b60005b838110156128de5780820151818401526020810190506128c3565b60008484015250505050565b6000601f19601f8301169050919050565b6000612906826128b5565b6129108185612320565b93506129208185602086016128c0565b612929816128ea565b840191505092915050565b6000602082019050818103600083015261294e81846128fb565b905092915050565b7f4e487b7100000000000000000000000000000000000000000000000000000000600052605160045260246000fdfea264697066735822122095276ebd29d6abcc798edeeacbf5480f044dabddfebae067672e4976c07bdb7f64736f6c63430008180033",
  "linkReferences": {},
  "deployedLinkReferences": {}
}