{
  "_format": "hh-sol-artifact-1",
  "contractName": "multiPoolV2",
  "sourceName": "contracts/multiPoolV2.sol",
  "abi": [
    {
      "inputs": [
        {
          "internalType": "address",
          "name": "_usdtAddress",
          "type": "address"
        },
        {
          "internalType": "address",
          "name": "_projectWallet",
          "type": "address"
        }
      ],
      "stateMutability": "nonpayable",
      "type": "constructor"
    },
    {
      "anonymous": false,
      "inputs": [
        {
          "indexed": true,
          "internalType": "address",
          "name": "user",
          "type": "address"
        },
        {
          "indexed": false,
          "internalType": "uint256",
          "name": "amount",
          "type": "uint256"
        },
        {
          "indexed": false,
          "internalType": "uint256",
          "name": "poolId",
          "type": "uint256"
        },
        {
          "indexed": false,
          "internalType": "uint256",
          "name": "position",
          "type": "uint256"
        }
      ],
      "name": "ExceedingPayment",
      "type": "event"
    },
    {
      "anonymous": false,
      "inputs": [
        {
          "indexed": true,
          "internalType": "address",
          "name": "user",
          "type": "address"
        },
        {
          "indexed": false,
          "internalType": "uint256",
          "name": "poolId",
          "type": "uint256"
        },
        {
          "indexed": false,
          "internalType": "uint256",
          "name": "missedCount",
          "type": "uint256"
        }
      ],
      "name": "MissedOpportunity",
      "type": "event"
    },
    {
      "anonymous": false,
      "inputs": [
        {
          "indexed": true,
          "internalType": "address",
          "name": "user",
          "type": "address"
        },
        {
          "indexed": false,
          "internalType": "uint256",
          "name": "amount",
          "type": "uint256"
        },
        {
          "indexed": false,
          "internalType": "uint256",
          "name": "poolId",
          "type": "uint256"
        },
        {
          "indexed": false,
          "internalType": "uint256",
          "name": "position",
          "type": "uint256"
        }
      ],
      "name": "PaymentDistributed",
      "type": "event"
    },
    {
      "anonymous": false,
      "inputs": [
        {
          "indexed": true,
          "internalType": "address",
          "name": "user",
          "type": "address"
        },
        {
          "indexed": true,
          "internalType": "uint256",
          "name": "fromPool",
          "type": "uint256"
        },
        {
          "indexed": true,
          "internalType": "uint256",
          "name": "toPool",
          "type": "uint256"
        },
        {
          "indexed": false,
          "internalType": "uint256",
          "name": "position",
          "type": "uint256"
        }
      ],
      "name": "PoolAdvanced",
      "type": "event"
    },
    {
      "anonymous": false,
      "inputs": [
        {
          "indexed": true,
          "internalType": "address",
          "name": "user",
          "type": "address"
        },
        {
          "indexed": true,
          "internalType": "uint256",
          "name": "poolId",
          "type": "uint256"
        },
        {
          "indexed": false,
          "internalType": "uint256",
          "name": "position",
          "type": "uint256"
        }
      ],
      "name": "PoolJoined",
      "type": "event"
    },
    {
      "inputs": [],
      "name": "USDT",
      "outputs": [
        {
          "internalType": "contract IERC20",
          "name": "",
          "type": "address"
        }
      ],
      "stateMutability": "view",
      "type": "function"
    },
    {
      "inputs": [
        {
          "internalType": "address",
          "name": "userAddress",
          "type": "address"
        }
      ],
      "name": "getInfoUser",
      "outputs": [
        {
          "internalType": "address",
          "name": "",
          "type": "address"
        },
        {
          "internalType": "uint256",
          "name": "",
          "type": "uint256"
        },
        {
          "internalType": "uint256",
          "name": "",
          "type": "uint256"
        }
      ],
      "stateMutability": "view",
      "type": "function"
    },
    {
      "inputs": [
        {
          "internalType": "address",
          "name": "userAddress",
          "type": "address"
        }
      ],
      "name": "getPurchases",
      "outputs": [
        {
          "components": [
            {
              "internalType": "uint256",
              "name": "poolId",
              "type": "uint256"
            },
            {
              "internalType": "uint256",
              "name": "position",
              "type": "uint256"
            },
            {
              "internalType": "bool",
              "name": "hasPassed",
              "type": "bool"
            },
            {
              "internalType": "bool",
              "name": "startedInThisPool",
              "type": "bool"
            }
          ],
          "internalType": "struct multiPoolV2.Purchase[]",
          "name": "",
          "type": "tuple[]"
        }
      ],
      "stateMutability": "view",
      "type": "function"
    },
    {
      "inputs": [
        {
          "internalType": "uint256",
          "name": "poolId",
          "type": "uint256"
        }
      ],
      "name": "getQueue",
      "outputs": [
        {
          "internalType": "address[]",
          "name": "",
          "type": "address[]"
        }
      ],
      "stateMutability": "view",
      "type": "function"
    },
    {
      "inputs": [
        {
          "internalType": "uint256",
          "name": "poolId",
          "type": "uint256"
        },
        {
          "internalType": "address",
          "name": "referrer",
          "type": "address"
        },
        {
          "internalType": "address",
          "name": "wallet",
          "type": "address"
        }
      ],
      "name": "joinPool",
      "outputs": [],
      "stateMutability": "nonpayable",
      "type": "function"
    },
    {
      "inputs": [
        {
          "internalType": "uint256",
          "name": "",
          "type": "uint256"
        }
      ],
      "name": "levels",
      "outputs": [
        {
          "internalType": "uint256",
          "name": "percentage",
          "type": "uint256"
        }
      ],
      "stateMutability": "view",
      "type": "function"
    },
    {
      "inputs": [],
      "name": "networkFeePercentage",
      "outputs": [
        {
          "internalType": "uint256",
          "name": "",
          "type": "uint256"
        }
      ],
      "stateMutability": "view",
      "type": "function"
    },
    {
      "inputs": [
        {
          "internalType": "uint256",
          "name": "",
          "type": "uint256"
        }
      ],
      "name": "payForExtraInPools",
      "outputs": [
        {
          "internalType": "uint256",
          "name": "",
          "type": "uint256"
        }
      ],
      "stateMutability": "view",
      "type": "function"
    },
    {
      "inputs": [
        {
          "internalType": "uint256",
          "name": "",
          "type": "uint256"
        }
      ],
      "name": "pools",
      "outputs": [
        {
          "internalType": "uint256",
          "name": "price",
          "type": "uint256"
        },
        {
          "internalType": "uint256",
          "name": "numUsers",
          "type": "uint256"
        }
      ],
      "stateMutability": "view",
      "type": "function"
    },
    {
      "inputs": [],
      "name": "projectFeePercentage",
      "outputs": [
        {
          "internalType": "uint256",
          "name": "",
          "type": "uint256"
        }
      ],
      "stateMutability": "view",
      "type": "function"
    },
    {
      "inputs": [],
      "name": "projectWallet",
      "outputs": [
        {
          "internalType": "address",
          "name": "",
          "type": "address"
        }
      ],
      "stateMutability": "view",
      "type": "function"
    },
    {
      "inputs": [
        {
          "internalType": "address",
          "name": "",
          "type": "address"
        }
      ],
      "name": "users",
      "outputs": [
        {
          "internalType": "address",
          "name": "referrer",
          "type": "address"
        },
        {
          "internalType": "uint256",
          "name": "directReferrals",
          "type": "uint256"
        },
        {
          "internalType": "uint256",
          "name": "missedOpportunities",
          "type": "uint256"
        },
        {
          "internalType": "uint256",
          "name": "payedExtra",
          "type": "uint256"
        },
        {
          "internalType": "uint256",
          "name": "totalTree",
          "type": "uint256"
        }
      ],
      "stateMutability": "view",
      "type": "function"
    }
  ],
  "bytecode": "0x6080604052600a60065560146007553480156200001b57600080fd5b506040516200393e3803806200393e83398181016040528101906200004191906200054c565b80600560006101000a81548173ffffffffffffffffffffffffffffffffffffffff021916908373ffffffffffffffffffffffffffffffffffffffff160217905550816000806101000a81548173ffffffffffffffffffffffffffffffffffffffff021916908373ffffffffffffffffffffffffffffffffffffffff1602179055506302faf0806002600060018152602001908152602001600020600001819055506305f5e100600260006002815260200190815260200160002060000181905550630bebc2006002600060038152602001908152602001600020600001819055506311e1a3006002600060048152602001908152602001600020600001819055506317d78400600260006005815260200190815260200160002060000181905550631dcd6500600260006006815260200190815260200160002060000181905550633b9aca0060026000600781526020019081526020016000206000018190555060036040518060200160405280600a815250908060018154018082558091505060019003906000526020600020016000909190919091506000820151816000015550506003604051806020016040528060038152509080600181540180825580915050600190039060005260206000200160009091909190915060008201518160000155505060036040518060200160405280600281525090806001815401808255809150506001900390600052602060002001600090919091909150600082015181600001555050600360405180602001604052806001815250908060018154018082558091505060019003906000526020600020016000909190919091506000820151816000015550506003604051806020016040528060018152509080600181540180825580915050600190039060005260206000200160009091909190915060008201518160000155505060036040518060200160405280600181525090806001815401808255809150506001900390600052602060002001600090919091909150600082015181600001555050600360405180602001604052806002815250908060018154018082558091505060019003906000526020600020016000909190919091506000820151816000015550506004600090806001815401808255809150506001900390600052602060002001600090919091909150556004624c4b409080600181540180825580915050600190039060005260206000200160009091909190915055600462989680908060018154018082558091505060019003906000526020600020016000909190919091505560046307270e0090806001815401808255809150506001900390600052602060002001600090919091909150556004630db5858090806001815401808255809150506001900390600052602060002001600090919091909150556004631443fd00908060018154018082558091505060019003906000526020600020016000909190919091505560046302faf08090806001815401808255809150506001900390600052602060002001600090919091909150556004635f5e10009080600181540180825580915050600190039060005260206000200160009091909190915055505062000593565b600080fd5b600073ffffffffffffffffffffffffffffffffffffffff82169050919050565b60006200051482620004e7565b9050919050565b620005268162000507565b81146200053257600080fd5b50565b60008151905062000546816200051b565b92915050565b60008060408385031215620005665762000565620004e2565b5b6000620005768582860162000535565b9250506020620005898582860162000535565b9150509250929050565b61339b80620005a36000396000f3fe608060405234801561001057600080fd5b50600436106100b45760003560e01c8063ac4afa3811610071578063ac4afa38146101b9578063b2596a67146101ea578063beb08ab91461021a578063bfe7145c14610238578063c54e44eb14610268578063cbf4b23b14610286576100b4565b80630be8fffc146100b957806370cd5a80146100e95780637c32654214610119578063843fa8081461013757806393f7d5cf14610153578063a87430ba14610185575b600080fd5b6100d360048036038101906100ce919061252d565b6102a4565b6040516100e0919061264a565b60405180910390f35b61010360048036038101906100fe9190612698565b610399565b60405161011091906127f3565b60405180910390f35b610121610484565b60405161012e9190612824565b60405180910390f35b610151600480360381019061014c919061283f565b61048a565b005b61016d60048036038101906101689190612698565b610a40565b60405161017c939291906128a1565b60405180910390f35b61019f600480360381019061019a9190612698565b610b3b565b6040516101b09594939291906128d8565b60405180910390f35b6101d360048036038101906101ce919061252d565b610b91565b6040516101e192919061292b565b60405180910390f35b61020460048036038101906101ff919061252d565b610bb5565b6040516102119190612824565b60405180910390f35b610222610bdf565b60405161022f9190612954565b60405180910390f35b610252600480360381019061024d919061252d565b610c05565b60405161025f9190612824565b60405180910390f35b610270610c29565b60405161027d91906129ce565b60405180910390f35b61028e610c4d565b60405161029b9190612824565b60405180910390f35b6060600182101580156102b8575060078211155b6102f7576040517f08c379a00000000000000000000000000000000000000000000000000000000081526004016102ee90612a46565b60405180910390fd5b6002600083815260200190815260200160002060020180548060200260200160405190810160405280929190818152602001828054801561038d57602002820191906000526020600020905b8160009054906101000a900473ffffffffffffffffffffffffffffffffffffffff1673ffffffffffffffffffffffffffffffffffffffff1681526020019060010190808311610343575b50505050509050919050565b6060600160008373ffffffffffffffffffffffffffffffffffffffff1673ffffffffffffffffffffffffffffffffffffffff168152602001908152602001600020600001805480602002602001604051908101604052809291908181526020016000905b82821015610479578382906000526020600020906003020160405180608001604052908160008201548152602001600182015481526020016002820160009054906101000a900460ff161515151581526020016002820160019054906101000a900460ff161515151581525050815260200190600101906103fd565b505050509050919050565b60075481565b6001831015801561049c575060078311155b6104db576040517f08c379a00000000000000000000000000000000000000000000000000000000081526004016104d290612ab2565b60405180910390fd5b6000600160008373ffffffffffffffffffffffffffffffffffffffff1673ffffffffffffffffffffffffffffffffffffffff1681526020019081526020016000209050600060026000868152602001908152602001600020600101549050600082600001805490500361061957838260010160006101000a81548173ffffffffffffffffffffffffffffffffffffffff021916908373ffffffffffffffffffffffffffffffffffffffff160217905550600073ffffffffffffffffffffffffffffffffffffffff168473ffffffffffffffffffffffffffffffffffffffff161461061857600160008573ffffffffffffffffffffffffffffffffffffffff1673ffffffffffffffffffffffffffffffffffffffff168152602001908152602001600020600201600081548092919061061290612b01565b91905055505b5b3073ffffffffffffffffffffffffffffffffffffffff168373ffffffffffffffffffffffffffffffffffffffff16146107425760008054906101000a900473ffffffffffffffffffffffffffffffffffffffff1673ffffffffffffffffffffffffffffffffffffffff166323b872dd8430600260008a8152602001908152602001600020600001546040518463ffffffff1660e01b81526004016106bf93929190612b49565b6020604051808303816000875af11580156106de573d6000803e3d6000fd5b505050506040513d601f19601f820116820180604052508101906107029190612bac565b610741576040517f08c379a000000000000000000000000000000000000000000000000000000000815260040161073890612c25565b60405180910390fd5b5b600060026000878152602001908152602001600020600001549050600060646006548361076f9190612c45565b6107799190612cb6565b905060008054906101000a900473ffffffffffffffffffffffffffffffffffffffff1673ffffffffffffffffffffffffffffffffffffffff1663a9059cbb600560009054906101000a900473ffffffffffffffffffffffffffffffffffffffff16836040518363ffffffff1660e01b81526004016107f8929190612ce7565b6020604051808303816000875af1158015610817573d6000803e3d6000fd5b505050506040513d601f19601f8201168201806040525081019061083b9190612bac565b61087a576040517f08c379a000000000000000000000000000000000000000000000000000000000815260040161087190612d5c565b60405180910390fd5b83600001604051806080016040528089815260200185815260200160001515815260200160058a101515158152509080600181540180825580915050600190039060005260206000209060030201600090919091909150600082015181600001556020820151816001015560408201518160020160006101000a81548160ff02191690831515021790555060608201518160020160016101000a81548160ff021916908315150217905550505060026000888152602001908152602001600020600201859080600181540180825580915050600190039060005260206000200160009091909190916101000a81548173ffffffffffffffffffffffffffffffffffffffff021916908373ffffffffffffffffffffffffffffffffffffffff1602179055506002600088815260200190815260200160002060010160008154809291906109c590612b01565b9190505550868573ffffffffffffffffffffffffffffffffffffffff167f5d7a294516b4a1829eed3a951be2033d36906528a5bf9aa9760885fd55b0c7e885604051610a119190612824565b60405180910390a3610a238588610c53565b60038310610a3757610a36876000610fdf565b5b50505050505050565b6000806000600160008573ffffffffffffffffffffffffffffffffffffffff1673ffffffffffffffffffffffffffffffffffffffff16815260200190815260200160002060010160009054906101000a900473ffffffffffffffffffffffffffffffffffffffff16600160008673ffffffffffffffffffffffffffffffffffffffff1673ffffffffffffffffffffffffffffffffffffffff16815260200190815260200160002060020154600160008773ffffffffffffffffffffffffffffffffffffffff1673ffffffffffffffffffffffffffffffffffffffff168152602001908152602001600020600301549250925092509193909250565b60016020528060005260406000206000915090508060010160009054906101000a900473ffffffffffffffffffffffffffffffffffffffff16908060020154908060030154908060040154908060050154905085565b60026020528060005260406000206000915090508060000154908060010154905082565b60038181548110610bc557600080fd5b906000526020600020016000915090508060000154905081565b600560009054906101000a900473ffffffffffffffffffffffffffffffffffffffff1681565b60048181548110610c1557600080fd5b906000526020600020016000915090505481565b60008054906101000a900473ffffffffffffffffffffffffffffffffffffffff1681565b60065481565b6000600160008473ffffffffffffffffffffffffffffffffffffffff1673ffffffffffffffffffffffffffffffffffffffff16815260200190815260200160002060010160009054906101000a900473ffffffffffffffffffffffffffffffffffffffff16905060005b60038054905081108015610cfe5750600073ffffffffffffffffffffffffffffffffffffffff168273ffffffffffffffffffffffffffffffffffffffff1614155b15610fd9576000606460038381548110610d1b57610d1a612d7c565b5b90600052602060002001600001546002600087815260200190815260200160002060000154610d4a9190612c45565b610d549190612cb6565b905060008054906101000a900473ffffffffffffffffffffffffffffffffffffffff1673ffffffffffffffffffffffffffffffffffffffff1663a9059cbb84836040518363ffffffff1660e01b8152600401610db1929190612ce7565b6020604051808303816000875af1158015610dd0573d6000803e3d6000fd5b505050506040513d601f19601f82011682018060405250810190610df49190612bac565b610e33576040517f08c379a0000000000000000000000000000000000000000000000000000000008152600401610e2a90612df7565b60405180910390fd5b610ea96040518060400160405280600981526020017f726566657269646f3a0000000000000000000000000000000000000000000000815250846040518060400160405280600681526020017f5061676f3a2000000000000000000000000000000000000000000000000000008152508461136b565b80600160008573ffffffffffffffffffffffffffffffffffffffff1673ffffffffffffffffffffffffffffffffffffffff1681526020019081526020016000206005016000828254610efb9190612e17565b925050819055508273ffffffffffffffffffffffffffffffffffffffff167fb63d16ce268f739ee8d407f4fe2c19a45e8cb4a4771fc0f0c54af2c07836cf7a8286600186610f499190612e17565b604051610f5893929190612e4b565b60405180910390a2600160008473ffffffffffffffffffffffffffffffffffffffff1673ffffffffffffffffffffffffffffffffffffffff16815260200190815260200160002060010160009054906101000a900473ffffffffffffffffffffffffffffffffffffffff169250508080610fd190612b01565b915050610cbd565b50505050565b60018210158015610ff1575060078211155b611030576040517f08c379a000000000000000000000000000000000000000000000000000000000815260040161102790612ab2565b60405180910390fd5b60026000838152602001908152602001600020600101548110611088576040517f08c379a000000000000000000000000000000000000000000000000000000000815260040161107f90612ece565b60405180910390fd5b60006002600084815260200190815260200160002060020182815481106110b2576110b1612d7c565b5b9060005260206000200160009054906101000a900473ffffffffffffffffffffffffffffffffffffffff1690506000600160008373ffffffffffffffffffffffffffffffffffffffff1673ffffffffffffffffffffffffffffffffffffffff1681526020019081526020016000209050600061112f82868661140d565b9050600061113c86611501565b905080836002015410158061115f57508160020160019054906101000a900460ff165b156111745761116f848787611573565b611363565b82600301600081548092919061118990612b01565b91905055508373ffffffffffffffffffffffffffffffffffffffff167f982434c7ce9a7d98b21e4c0cdde4fa70352156fdcd44ea57a7c31217af1429ea8785600301546040516111da92919061292b565b60405180910390a260006001866111f19190612e17565b90505b600260008881526020019081526020016000206001015481101561136157600060026000898152602001908152602001600020600201828154811061123c5761123b612d7c565b5b9060005260206000200160009054906101000a900473ffffffffffffffffffffffffffffffffffffffff1690506000600160008373ffffffffffffffffffffffffffffffffffffffff1673ffffffffffffffffffffffffffffffffffffffff16815260200190815260200160002090508381600201541015806112cd57508460020160019054906101000a900460ff165b156112e4576112dd828a85611573565b5050611361565b8060030160008154809291906112f990612b01565b91905055508173ffffffffffffffffffffffffffffffffffffffff167f982434c7ce9a7d98b21e4c0cdde4fa70352156fdcd44ea57a7c31217af1429ea8a836003015460405161134a92919061292b565b60405180910390a2505080806001019150506111f4565b505b505050505050565b611407848484846040516024016113859493929190612f6d565b6040516020818303038152906040527f91d1112e000000000000000000000000000000000000000000000000000000007bffffffffffffffffffffffffffffffffffffffffffffffffffffffff19166020820180517bffffffffffffffffffffffffffffffffffffffffffffffffffffffff8381831617835250505050611951565b50505050565b600080600090505b84600001805490508110156114be578385600001828154811061143b5761143a612d7c565b5b90600052602060002090600302016000015414801561148057508285600001828154811061146c5761146b612d7c565b5b906000526020600020906003020160010154145b156114b15784600001818154811061149b5761149a612d7c565b5b90600052602060002090600302019150506114fa565b8080600101915050611415565b506040517f08c379a00000000000000000000000000000000000000000000000000000000081526004016114f19061300c565b60405180910390fd5b9392505050565b600060018203611514576000905061156e565b60028203611525576001905061156e565b60038203611536576002905061156e565b60048203611547576003905061156e565b60058203611558576004905061156e565b60068203611569576005905061156e565b600090505b919050565b6000600160008573ffffffffffffffffffffffffffffffffffffffff1673ffffffffffffffffffffffffffffffffffffffff168152602001908152602001600020905060006115c382858561140d565b905060018160020160006101000a81548160ff02191690831515021790555060006001856115f19190612e17565b90506115fd858561196b565b60008490505b60026000878152602001908152602001600020600201805490508110156116f257600060026000888152602001908152602001600020600201828154811061164e5761164d612d7c565b5b9060005260206000200160009054906101000a900473ffffffffffffffffffffffffffffffffffffffff1690506000600160008373ffffffffffffffffffffffffffffffffffffffff1673ffffffffffffffffffffffffffffffffffffffff168152602001908152602001600020905060006116d7828a6001876116d29190612e17565b61140d565b90508381600101819055505050508080600101915050611603565b5060008054906101000a900473ffffffffffffffffffffffffffffffffffffffff1673ffffffffffffffffffffffffffffffffffffffff1663a9059cbb876004888154811061174457611743612d7c565b5b90600052602060002001546040518363ffffffff1660e01b815260040161176c929190612ce7565b6020604051808303816000875af115801561178b573d6000803e3d6000fd5b505050506040513d601f19601f820116820180604052508101906117af9190612bac565b6117ee576040517f08c379a00000000000000000000000000000000000000000000000000000000081526004016117e590613078565b60405180910390fd5b8573ffffffffffffffffffffffffffffffffffffffff167f2cc6d11dfc632469e7f760bc6cc605413cb63f6d83af3384862007655d91f3386004878154811061183a57611839612d7c565b5b9060005260206000200154878760405161185693929190612e4b565b60405180910390a26004858154811061187257611871612d7c565b5b90600052602060002001548360040160008282546118909190612e17565b92505081905550600785036118ee576118dd6040518060400160405280601081526020017f4d7565766520706f736963696f6e657300000000000000000000000000000000815250611b61565b6118e960016003611bfa565b611949565b6118f88187611fec565b80858773ffffffffffffffffffffffffffffffffffffffff167fa4b503cf1a0317bfa062a721bd5edaa915a397798f63635c14deeccf2f17e40b876040516119409190612824565b60405180910390a45b505050505050565b611968816119606123846123a5565b63ffffffff16565b50565b600260008381526020019081526020016000206002018054905081106119c6576040517f08c379a00000000000000000000000000000000000000000000000000000000081526004016119bd906130e4565b60405180910390fd5b60008190505b600160026000858152602001908152602001600020600201805490506119f29190613104565b811015611ad55760026000848152602001908152602001600020600201600182611a1c9190612e17565b81548110611a2d57611a2c612d7c565b5b9060005260206000200160009054906101000a900473ffffffffffffffffffffffffffffffffffffffff16600260008581526020019081526020016000206002018281548110611a8057611a7f612d7c565b5b9060005260206000200160006101000a81548173ffffffffffffffffffffffffffffffffffffffff021916908373ffffffffffffffffffffffffffffffffffffffff16021790555080806001019150506119cc565b5060026000838152602001908152602001600020600201805480611afc57611afb613138565b5b6001900381819060005260206000200160006101000a81549073ffffffffffffffffffffffffffffffffffffffff02191690559055600260008381526020019081526020016000206001016000815480929190611b5890613167565b91905055505050565b611bf781604051602401611b759190613190565b6040516020818303038152906040527f41304fac000000000000000000000000000000000000000000000000000000007bffffffffffffffffffffffffffffffffffffffffffffffffffffffff19166020820180517bffffffffffffffffffffffffffffffffffffffffffffffffffffffff8381831617835250505050611951565b50565b60018210158015611c0c575060078211155b611c4b576040517f08c379a0000000000000000000000000000000000000000000000000000000008152600401611c4290612ab2565b60405180910390fd5b60008111611c8e576040517f08c379a0000000000000000000000000000000000000000000000000000000008152600401611c8590613224565b60405180910390fd5b8060026000848152602001908152602001600020600101541015611ce7576040517f08c379a0000000000000000000000000000000000000000000000000000000008152600401611cde906132b6565b60405180910390fd5b60005b81811015611e185760006002600060018152602001908152602001600020600201600081548110611d1e57611d1d612d7c565b5b9060005260206000200160009054906101000a900473ffffffffffffffffffffffffffffffffffffffff1690506000600160008373ffffffffffffffffffffffffffffffffffffffff1673ffffffffffffffffffffffffffffffffffffffff16815260200190815260200160002090506000611d9d826001600061140d565b905060018160020160006101000a81548160ff021916908315150217905550611dfb6040518060400160405280601281526020017f4d756576652061206c6120616464726573730000000000000000000000000000815250846123b0565b611e088360016000611573565b5050508080600101915050611cea565b506000600290505b60078111611fe7575b600360026000838152602001908152602001600020600101541115611fd4576000805b6002600084815260200190815260200160002060010154811015611f70576000600260008581526020019081526020016000206002018281548110611e9457611e93612d7c565b5b9060005260206000200160009054906101000a900473ffffffffffffffffffffffffffffffffffffffff1690506000600160008373ffffffffffffffffffffffffffffffffffffffff1673ffffffffffffffffffffffffffffffffffffffff16815260200190815260200160002090506000611f1182878661140d565b9050611f1c86611501565b8260020154101580611f3c57508060020160019054906101000a900460ff165b15611f50578480611f4c90612b01565b9550505b60038510611f6057505050611f70565b5050508080600101915050611e4c565b5060038110611fc857611fb86040518060400160405280601381526020017f546f74616c2063616c6966696361646f733a20000000000000000000000000008152508261244c565b611fc3826000610fdf565b611fce565b50611fd4565b50611e29565b8080611fdf90612b01565b915050611e20565b505050565b60018210158015611ffe575060078211155b61203d576040517f08c379a000000000000000000000000000000000000000000000000000000000815260040161203490612ab2565b60405180910390fd5b6000600160008373ffffffffffffffffffffffffffffffffffffffff1673ffffffffffffffffffffffffffffffffffffffff168152602001908152602001600020905060006002600085815260200190815260200160002060010154905060006002600086815260200190815260200160002060000154905060006064600654836120c89190612c45565b6120d29190612cb6565b905060008054906101000a900473ffffffffffffffffffffffffffffffffffffffff1673ffffffffffffffffffffffffffffffffffffffff1663a9059cbb600560009054906101000a900473ffffffffffffffffffffffffffffffffffffffff16836040518363ffffffff1660e01b8152600401612151929190612ce7565b6020604051808303816000875af1158015612170573d6000803e3d6000fd5b505050506040513d601f19601f820116820180604052508101906121949190612bac565b6121d3576040517f08c379a00000000000000000000000000000000000000000000000000000000081526004016121ca90612d5c565b60405180910390fd5b836000016040518060800160405280888152602001858152602001600015158152602001600589101515158152509080600181540180825580915050600190039060005260206000209060030201600090919091909150600082015181600001556020820151816001015560408201518160020160006101000a81548160ff02191690831515021790555060608201518160020160016101000a81548160ff021916908315150217905550505060026000878152602001908152602001600020600201859080600181540180825580915050600190039060005260206000200160009091909190916101000a81548173ffffffffffffffffffffffffffffffffffffffff021916908373ffffffffffffffffffffffffffffffffffffffff16021790555060026000878152602001908152602001600020600101600081548092919061231e90612b01565b9190505550858573ffffffffffffffffffffffffffffffffffffffff167f5d7a294516b4a1829eed3a951be2033d36906528a5bf9aa9760885fd55b0c7e88560405161236a9190612824565b60405180910390a361237c8587610c53565b505050505050565b60006a636f6e736f6c652e6c6f679050600080835160208501845afa505050565b6124e8819050919050565b61244882826040516024016123c69291906132d6565b6040516020818303038152906040527f319af333000000000000000000000000000000000000000000000000000000007bffffffffffffffffffffffffffffffffffffffffffffffffffffffff19166020820180517bffffffffffffffffffffffffffffffffffffffffffffffffffffffff8381831617835250505050611951565b5050565b6124e48282604051602401612462929190613306565b6040516020818303038152906040527fb60e72cc000000000000000000000000000000000000000000000000000000007bffffffffffffffffffffffffffffffffffffffffffffffffffffffff19166020820180517bffffffffffffffffffffffffffffffffffffffffffffffffffffffff8381831617835250505050611951565b5050565b6124f0613336565b565b600080fd5b6000819050919050565b61250a816124f7565b811461251557600080fd5b50565b60008135905061252781612501565b92915050565b600060208284031215612543576125426124f2565b5b600061255184828501612518565b91505092915050565b600081519050919050565b600082825260208201905092915050565b6000819050602082019050919050565b600073ffffffffffffffffffffffffffffffffffffffff82169050919050565b60006125b182612586565b9050919050565b6125c1816125a6565b82525050565b60006125d383836125b8565b60208301905092915050565b6000602082019050919050565b60006125f78261255a565b6126018185612565565b935061260c83612576565b8060005b8381101561263d57815161262488826125c7565b975061262f836125df565b925050600181019050612610565b5085935050505092915050565b6000602082019050818103600083015261266481846125ec565b905092915050565b612675816125a6565b811461268057600080fd5b50565b6000813590506126928161266c565b92915050565b6000602082840312156126ae576126ad6124f2565b5b60006126bc84828501612683565b91505092915050565b600081519050919050565b600082825260208201905092915050565b6000819050602082019050919050565b6126fa816124f7565b82525050565b60008115159050919050565b61271581612700565b82525050565b60808201600082015161273160008501826126f1565b50602082015161274460208501826126f1565b506040820151612757604085018261270c565b50606082015161276a606085018261270c565b50505050565b600061277c838361271b565b60808301905092915050565b6000602082019050919050565b60006127a0826126c5565b6127aa81856126d0565b93506127b5836126e1565b8060005b838110156127e65781516127cd8882612770565b97506127d883612788565b9250506001810190506127b9565b5085935050505092915050565b6000602082019050818103600083015261280d8184612795565b905092915050565b61281e816124f7565b82525050565b60006020820190506128396000830184612815565b92915050565b600080600060608486031215612858576128576124f2565b5b600061286686828701612518565b935050602061287786828701612683565b925050604061288886828701612683565b9150509250925092565b61289b816125a6565b82525050565b60006060820190506128b66000830186612892565b6128c36020830185612815565b6128d06040830184612815565b949350505050565b600060a0820190506128ed6000830188612892565b6128fa6020830187612815565b6129076040830186612815565b6129146060830185612815565b6129216080830184612815565b9695505050505050565b60006040820190506129406000830185612815565b61294d6020830184612815565b9392505050565b60006020820190506129696000830184612892565b92915050565b6000819050919050565b600061299461298f61298a84612586565b61296f565b612586565b9050919050565b60006129a682612979565b9050919050565b60006129b88261299b565b9050919050565b6129c8816129ad565b82525050565b60006020820190506129e360008301846129bf565b92915050565b600082825260208201905092915050565b7f506f6f6c206e6f2076616c696461000000000000000000000000000000000000600082015250565b6000612a30600e836129e9565b9150612a3b826129fa565b602082019050919050565b60006020820190508181036000830152612a5f81612a23565b9050919050565b7f506f6f6c206e6f2076616c69646f000000000000000000000000000000000000600082015250565b6000612a9c600e836129e9565b9150612aa782612a66565b602082019050919050565b60006020820190508181036000830152612acb81612a8f565b9050919050565b7f4e487b7100000000000000000000000000000000000000000000000000000000600052601160045260246000fd5b6000612b0c826124f7565b91507fffffffffffffffffffffffffffffffffffffffffffffffffffffffffffffffff8203612b3e57612b3d612ad2565b5b600182019050919050565b6000606082019050612b5e6000830186612892565b612b6b6020830185612892565b612b786040830184612815565b949350505050565b612b8981612700565b8114612b9457600080fd5b50565b600081519050612ba681612b80565b92915050565b600060208284031215612bc257612bc16124f2565b5b6000612bd084828501612b97565b91505092915050565b7f5472616e73666572656e6369612066616c6c6964610000000000000000000000600082015250565b6000612c0f6015836129e9565b9150612c1a82612bd9565b602082019050919050565b60006020820190508181036000830152612c3e81612c02565b9050919050565b6000612c50826124f7565b9150612c5b836124f7565b9250828202612c69816124f7565b91508282048414831517612c8057612c7f612ad2565b5b5092915050565b7f4e487b7100000000000000000000000000000000000000000000000000000000600052601260045260246000fd5b6000612cc1826124f7565b9150612ccc836124f7565b925082612cdc57612cdb612c87565b5b828204905092915050565b6000604082019050612cfc6000830185612892565b612d096020830184612815565b9392505050565b7f5061676f20616c2070726f796563746f2066616c6c69646f0000000000000000600082015250565b6000612d466018836129e9565b9150612d5182612d10565b602082019050919050565b60006020820190508181036000830152612d7581612d39565b9050919050565b7f4e487b7100000000000000000000000000000000000000000000000000000000600052603260045260246000fd5b7f5061676f20616c20726566657269646f2066616c6c69646f0000000000000000600082015250565b6000612de16018836129e9565b9150612dec82612dab565b602082019050919050565b60006020820190508181036000830152612e1081612dd4565b9050919050565b6000612e22826124f7565b9150612e2d836124f7565b9250828201905080821115612e4557612e44612ad2565b5b92915050565b6000606082019050612e606000830186612815565b612e6d6020830185612815565b612e7a6040830184612815565b949350505050565b7f506f736963696f6e206e6f2076616c69646120656e20656c20706f6f6c000000600082015250565b6000612eb8601d836129e9565b9150612ec382612e82565b602082019050919050565b60006020820190508181036000830152612ee781612eab565b9050919050565b600081519050919050565b60005b83811015612f17578082015181840152602081019050612efc565b60008484015250505050565b6000601f19601f8301169050919050565b6000612f3f82612eee565b612f4981856129e9565b9350612f59818560208601612ef9565b612f6281612f23565b840191505092915050565b60006080820190508181036000830152612f878187612f34565b9050612f966020830186612892565b8181036040830152612fa88185612f34565b9050612fb76060830184612815565b95945050505050565b7f436f6d707261206e6f20656e636f6e7472616461000000000000000000000000600082015250565b6000612ff66014836129e9565b915061300182612fc0565b602082019050919050565b6000602082019050818103600083015261302581612fe9565b9050919050565b7f5061676f206465206176616e63652066616c6c69646f00000000000000000000600082015250565b60006130626016836129e9565b915061306d8261302c565b602082019050919050565b6000602082019050818103600083015261309181613055565b9050919050565b7f506f736963696f6e206e6f2076616c6964610000000000000000000000000000600082015250565b60006130ce6012836129e9565b91506130d982613098565b602082019050919050565b600060208201905081810360008301526130fd816130c1565b9050919050565b600061310f826124f7565b915061311a836124f7565b925082820390508181111561313257613131612ad2565b5b92915050565b7f4e487b7100000000000000000000000000000000000000000000000000000000600052603160045260246000fd5b6000613172826124f7565b91506000820361318557613184612ad2565b5b600182039050919050565b600060208201905081810360008301526131aa8184612f34565b905092915050565b7f506f736963696f6e65732061206d6f76657220646562656e20736572206d617960008201527f6f72206120300000000000000000000000000000000000000000000000000000602082015250565b600061320e6026836129e9565b9150613219826131b2565b604082019050919050565b6000602082019050818103600083015261323d81613201565b9050919050565b7f4e6f2068617920737566696369656e746573207573756172696f7320656e206c60008201527f6120506f6f6c0000000000000000000000000000000000000000000000000000602082015250565b60006132a06026836129e9565b91506132ab82613244565b604082019050919050565b600060208201905081810360008301526132cf81613293565b9050919050565b600060408201905081810360008301526132f08185612f34565b90506132ff6020830184612892565b9392505050565b600060408201905081810360008301526133208185612f34565b905061332f6020830184612815565b9392505050565b7f4e487b7100000000000000000000000000000000000000000000000000000000600052605160045260246000fdfea26469706673582212201e1ac2296d8b8f19cc2cdba836d42626630ff10e02dbf8b51c07158544fedfef64736f6c63430008180033",
  "linkReferences": {},
  "deployedLinkReferences": {}
}